{
  "_format": "hh-sol-artifact-1",
  "contractName": "BarrelHouse",
  "sourceName": "contracts/BarrelHouse.sol",
  "abi": [
    {
      "inputs": [],
      "stateMutability": "nonpayable",
      "type": "constructor"
    },
    {
      "anonymous": false,
      "inputs": [
        {
          "indexed": true,
          "internalType": "address",
          "name": "account",
          "type": "address"
        },
        {
          "indexed": true,
          "internalType": "address",
          "name": "operator",
          "type": "address"
        },
        {
          "indexed": false,
          "internalType": "bool",
          "name": "approved",
          "type": "bool"
        }
      ],
      "name": "ApprovalForAll",
      "type": "event"
    },
    {
      "anonymous": false,
      "inputs": [
        {
          "indexed": true,
          "internalType": "bytes32",
          "name": "role",
          "type": "bytes32"
        },
        {
          "indexed": true,
          "internalType": "bytes32",
          "name": "previousAdminRole",
          "type": "bytes32"
        },
        {
          "indexed": true,
          "internalType": "bytes32",
          "name": "newAdminRole",
          "type": "bytes32"
        }
      ],
      "name": "RoleAdminChanged",
      "type": "event"
    },
    {
      "anonymous": false,
      "inputs": [
        {
          "indexed": true,
          "internalType": "bytes32",
          "name": "role",
          "type": "bytes32"
        },
        {
          "indexed": true,
          "internalType": "address",
          "name": "account",
          "type": "address"
        },
        {
          "indexed": true,
          "internalType": "address",
          "name": "sender",
          "type": "address"
        }
      ],
      "name": "RoleGranted",
      "type": "event"
    },
    {
      "anonymous": false,
      "inputs": [
        {
          "indexed": true,
          "internalType": "bytes32",
          "name": "role",
          "type": "bytes32"
        },
        {
          "indexed": true,
          "internalType": "address",
          "name": "account",
          "type": "address"
        },
        {
          "indexed": true,
          "internalType": "address",
          "name": "sender",
          "type": "address"
        }
      ],
      "name": "RoleRevoked",
      "type": "event"
    },
    {
      "anonymous": false,
      "inputs": [
        {
          "indexed": true,
          "internalType": "address",
          "name": "operator",
          "type": "address"
        },
        {
          "indexed": true,
          "internalType": "address",
          "name": "from",
          "type": "address"
        },
        {
          "indexed": true,
          "internalType": "address",
          "name": "to",
          "type": "address"
        },
        {
          "indexed": false,
          "internalType": "uint256[]",
          "name": "ids",
          "type": "uint256[]"
        },
        {
          "indexed": false,
          "internalType": "uint256[]",
          "name": "values",
          "type": "uint256[]"
        }
      ],
      "name": "TransferBatch",
      "type": "event"
    },
    {
      "anonymous": false,
      "inputs": [
        {
          "indexed": true,
          "internalType": "address",
          "name": "operator",
          "type": "address"
        },
        {
          "indexed": true,
          "internalType": "address",
          "name": "from",
          "type": "address"
        },
        {
          "indexed": true,
          "internalType": "address",
          "name": "to",
          "type": "address"
        },
        {
          "indexed": false,
          "internalType": "uint256",
          "name": "id",
          "type": "uint256"
        },
        {
          "indexed": false,
          "internalType": "uint256",
          "name": "value",
          "type": "uint256"
        }
      ],
      "name": "TransferSingle",
      "type": "event"
    },
    {
      "anonymous": false,
      "inputs": [
        {
          "indexed": false,
          "internalType": "string",
          "name": "value",
          "type": "string"
        },
        {
          "indexed": true,
          "internalType": "uint256",
          "name": "id",
          "type": "uint256"
        }
      ],
      "name": "URI",
      "type": "event"
    },
    {
      "inputs": [],
      "name": "DEFAULT_ADMIN_ROLE",
      "outputs": [
        {
          "internalType": "bytes32",
          "name": "",
          "type": "bytes32"
        }
      ],
      "stateMutability": "view",
      "type": "function"
    },
    {
      "inputs": [],
      "name": "PLATFORM_ROLE",
      "outputs": [
        {
          "internalType": "bytes32",
          "name": "",
          "type": "bytes32"
        }
      ],
      "stateMutability": "view",
      "type": "function"
    },
    {
      "inputs": [
        {
          "internalType": "address",
          "name": "platformAddress",
          "type": "address"
        },
        {
          "internalType": "bool",
          "name": "isAuthorized",
          "type": "bool"
        }
      ],
      "name": "authorizePlatform",
      "outputs": [],
      "stateMutability": "nonpayable",
      "type": "function"
    },
    {
      "inputs": [
        {
          "internalType": "address",
          "name": "account",
          "type": "address"
        },
        {
          "internalType": "uint256",
          "name": "id",
          "type": "uint256"
        }
      ],
      "name": "balanceOf",
      "outputs": [
        {
          "internalType": "uint256",
          "name": "",
          "type": "uint256"
        }
      ],
      "stateMutability": "view",
      "type": "function"
    },
    {
      "inputs": [
        {
          "internalType": "address[]",
          "name": "accounts",
          "type": "address[]"
        },
        {
          "internalType": "uint256[]",
          "name": "ids",
          "type": "uint256[]"
        }
      ],
      "name": "balanceOfBatch",
      "outputs": [
        {
          "internalType": "uint256[]",
          "name": "",
          "type": "uint256[]"
        }
      ],
      "stateMutability": "view",
      "type": "function"
    },
    {
      "inputs": [
        {
          "internalType": "address",
          "name": "account",
          "type": "address"
        },
        {
          "internalType": "uint256",
          "name": "id",
          "type": "uint256"
        },
        {
          "internalType": "uint256",
          "name": "value",
          "type": "uint256"
        }
      ],
      "name": "burn",
      "outputs": [],
      "stateMutability": "nonpayable",
      "type": "function"
    },
    {
      "inputs": [
        {
          "internalType": "bytes32",
          "name": "role",
          "type": "bytes32"
        }
      ],
      "name": "getRoleAdmin",
      "outputs": [
        {
          "internalType": "bytes32",
          "name": "",
          "type": "bytes32"
        }
      ],
      "stateMutability": "view",
      "type": "function"
    },
    {
      "inputs": [
        {
          "internalType": "bytes32",
          "name": "role",
          "type": "bytes32"
        },
        {
          "internalType": "uint256",
          "name": "index",
          "type": "uint256"
        }
      ],
      "name": "getRoleMember",
      "outputs": [
        {
          "internalType": "address",
          "name": "",
          "type": "address"
        }
      ],
      "stateMutability": "view",
      "type": "function"
    },
    {
      "inputs": [
        {
          "internalType": "bytes32",
          "name": "role",
          "type": "bytes32"
        }
      ],
      "name": "getRoleMemberCount",
      "outputs": [
        {
          "internalType": "uint256",
          "name": "",
          "type": "uint256"
        }
      ],
      "stateMutability": "view",
      "type": "function"
    },
    {
      "inputs": [],
      "name": "getTotalBarrels",
      "outputs": [
        {
          "internalType": "uint256",
          "name": "",
          "type": "uint256"
        }
      ],
      "stateMutability": "view",
      "type": "function"
    },
    {
      "inputs": [
        {
          "internalType": "bytes32",
          "name": "role",
          "type": "bytes32"
        },
        {
          "internalType": "address",
          "name": "account",
          "type": "address"
        }
      ],
      "name": "grantRole",
      "outputs": [],
      "stateMutability": "nonpayable",
      "type": "function"
    },
    {
      "inputs": [
        {
          "internalType": "bytes32",
          "name": "role",
          "type": "bytes32"
        },
        {
          "internalType": "address",
          "name": "account",
          "type": "address"
        }
      ],
      "name": "hasRole",
      "outputs": [
        {
          "internalType": "bool",
          "name": "",
          "type": "bool"
        }
      ],
      "stateMutability": "view",
      "type": "function"
    },
    {
      "inputs": [
        {
          "internalType": "address",
          "name": "account",
          "type": "address"
        },
        {
          "internalType": "address",
          "name": "operator",
          "type": "address"
        }
      ],
      "name": "isApprovedForAll",
      "outputs": [
        {
          "internalType": "bool",
          "name": "",
          "type": "bool"
        }
      ],
      "stateMutability": "view",
      "type": "function"
    },
    {
      "inputs": [
        {
          "internalType": "address",
          "name": "treasury",
          "type": "address"
        },
        {
          "internalType": "uint16",
          "name": "bottles",
          "type": "uint16"
        }
      ],
      "name": "mint",
      "outputs": [
        {
          "internalType": "uint256",
          "name": "",
          "type": "uint256"
        }
      ],
      "stateMutability": "nonpayable",
      "type": "function"
    },
    {
      "inputs": [
        {
          "internalType": "bytes32",
          "name": "role",
          "type": "bytes32"
        },
        {
          "internalType": "address",
          "name": "account",
          "type": "address"
        }
      ],
      "name": "renounceRole",
      "outputs": [],
      "stateMutability": "nonpayable",
      "type": "function"
    },
    {
      "inputs": [
        {
          "internalType": "bytes32",
          "name": "role",
          "type": "bytes32"
        },
        {
          "internalType": "address",
          "name": "account",
          "type": "address"
        }
      ],
      "name": "revokeRole",
      "outputs": [],
      "stateMutability": "nonpayable",
      "type": "function"
    },
    {
      "inputs": [
        {
          "internalType": "address",
          "name": "from",
          "type": "address"
        },
        {
          "internalType": "address",
          "name": "to",
          "type": "address"
        },
        {
          "internalType": "uint256[]",
          "name": "ids",
          "type": "uint256[]"
        },
        {
          "internalType": "uint256[]",
          "name": "amounts",
          "type": "uint256[]"
        },
        {
          "internalType": "bytes",
          "name": "data",
          "type": "bytes"
        }
      ],
      "name": "safeBatchTransferFrom",
      "outputs": [],
      "stateMutability": "nonpayable",
      "type": "function"
    },
    {
      "inputs": [
        {
          "internalType": "address",
          "name": "from",
          "type": "address"
        },
        {
          "internalType": "address",
          "name": "to",
          "type": "address"
        },
        {
          "internalType": "uint256",
          "name": "id",
          "type": "uint256"
        },
        {
          "internalType": "uint256",
          "name": "amount",
          "type": "uint256"
        },
        {
          "internalType": "bytes",
          "name": "data",
          "type": "bytes"
        }
      ],
      "name": "safeTransferFrom",
      "outputs": [],
      "stateMutability": "nonpayable",
      "type": "function"
    },
    {
      "inputs": [
        {
          "internalType": "address",
          "name": "operator",
          "type": "address"
        },
        {
          "internalType": "bool",
          "name": "approved",
          "type": "bool"
        }
      ],
      "name": "setApprovalForAll",
      "outputs": [],
      "stateMutability": "nonpayable",
      "type": "function"
    },
    {
      "inputs": [
        {
          "internalType": "string",
          "name": "newUri",
          "type": "string"
        }
      ],
      "name": "setUri",
      "outputs": [],
      "stateMutability": "nonpayable",
      "type": "function"
    },
    {
      "inputs": [
        {
          "internalType": "bytes4",
          "name": "interfaceId",
          "type": "bytes4"
        }
      ],
      "name": "supportsInterface",
      "outputs": [
        {
          "internalType": "bool",
          "name": "",
          "type": "bool"
        }
      ],
      "stateMutability": "view",
      "type": "function"
    },
    {
      "inputs": [
        {
          "internalType": "uint256",
          "name": "",
          "type": "uint256"
        }
      ],
      "name": "uri",
      "outputs": [
        {
          "internalType": "string",
          "name": "",
          "type": "string"
        }
      ],
      "stateMutability": "view",
      "type": "function"
    }
  ],
  "bytecode": "0x60806040523480156200001157600080fd5b506040518060400160405280600681526020017f746d705552490000000000000000000000000000000000000000000000000000815250620000606301ffc9a760e01b620000cc60201b60201c565b6200007181620001d560201b60201c565b6200008963d9b67a2660e01b620000cc60201b60201c565b620000a1630e89341c60e01b620000cc60201b60201c565b50620000c66000801b620000ba620001f160201b60201c565b620001f960201b60201c565b6200042e565b63ffffffff60e01b817bffffffffffffffffffffffffffffffffffffffffffffffffffffffff1916141562000169576040517f08c379a000000000000000000000000000000000000000000000000000000000815260040180806020018281038252601c8152602001807f4552433136353a20696e76616c696420696e746572666163652069640000000081525060200191505060405180910390fd5b6001600080837bffffffffffffffffffffffffffffffffffffffffffffffffffffffff19167bffffffffffffffffffffffffffffffffffffffffffffffffffffffff1916815260200190815260200160002060006101000a81548160ff02191690831515021790555050565b8060039080519060200190620001ed92919062000388565b5050565b600033905090565b6200020b82826200020f60201b60201c565b5050565b6200023e8160046000858152602001908152602001600020600001620002b360201b62001fe31790919060201c565b15620002af5762000254620001f160201b60201c565b73ffffffffffffffffffffffffffffffffffffffff168173ffffffffffffffffffffffffffffffffffffffff16837f2f8788117e7eff1d82e926ec794901d17c78024a50270940304540a733656f0d60405160405180910390a45b5050565b6000620002e3836000018373ffffffffffffffffffffffffffffffffffffffff1660001b620002eb60201b60201c565b905092915050565b6000620002ff83836200036560201b60201c565b6200035a5782600001829080600181540180825580915050600190039060005260206000200160009091909190915055826000018054905083600101600084815260200190815260200160002081905550600190506200035f565b600090505b92915050565b600080836001016000848152602001908152602001600020541415905092915050565b828054600181600116156101000203166002900490600052602060002090601f016020900481019282601f10620003cb57805160ff1916838001178555620003fc565b82800160010185558215620003fc579182015b82811115620003fb578251825591602001919060010190620003de565b5b5090506200040b91906200040f565b5090565b5b808211156200042a57600081600090555060010162000410565b5090565b613571806200043e6000396000f3fe608060405234801561001057600080fd5b50600436106101415760003560e01c80639010d07c116100b8578063ad0be4bd1161007c578063ad0be4bd146109cf578063ca15c87314610a35578063d547741f14610a77578063e985e9c514610ac5578063f242432a14610b3f578063f5298aca14610c4e57610141565b80639010d07c146107e057806391d14854146108425780639b642de1146108a6578063a217fddf14610961578063a22cb4651461097f57610141565b80632eb2c2d61161010a5780632eb2c2d6146103125780632f2ff15d1461053557806336568abe146105835780634e1273f4146105d157806370824c5c146107725780638291f01d1461079057610141565b8062fdd58e1461014657806301ffc9a7146101a85780630e89341c1461020b57806314d80b4c146102b2578063248a9ca3146102d0575b600080fd5b6101926004803603604081101561015c57600080fd5b81019080803573ffffffffffffffffffffffffffffffffffffffff16906020019092919080359060200190929190505050610ca6565b6040518082815260200191505060405180910390f35b6101f3600480360360208110156101be57600080fd5b8101908080357bffffffffffffffffffffffffffffffffffffffffffffffffffffffff19169060200190929190505050610d86565b60405180821515815260200191505060405180910390f35b6102376004803603602081101561022157600080fd5b8101908080359060200190929190505050610ded565b6040518080602001828103825283818151815260200191508051906020019080838360005b8381101561027757808201518184015260208101905061025c565b50505050905090810190601f1680156102a45780820380516001836020036101000a031916815260200191505b509250505060405180910390f35b6102ba610e91565b6040518082815260200191505060405180910390f35b6102fc600480360360208110156102e657600080fd5b8101908080359060200190929190505050610ea2565b6040518082815260200191505060405180910390f35b610533600480360360a081101561032857600080fd5b81019080803573ffffffffffffffffffffffffffffffffffffffff169060200190929190803573ffffffffffffffffffffffffffffffffffffffff1690602001909291908035906020019064010000000081111561038557600080fd5b82018360208201111561039757600080fd5b803590602001918460208302840111640100000000831117156103b957600080fd5b919080806020026020016040519081016040528093929190818152602001838360200280828437600081840152601f19601f8201169050808301925050505050505091929192908035906020019064010000000081111561041957600080fd5b82018360208201111561042b57600080fd5b8035906020019184602083028401116401000000008311171561044d57600080fd5b919080806020026020016040519081016040528093929190818152602001838360200280828437600081840152601f19601f820116905080830192505050505050509192919290803590602001906401000000008111156104ad57600080fd5b8201836020820111156104bf57600080fd5b803590602001918460018302840111640100000000831117156104e157600080fd5b91908080601f016020809104026020016040519081016040528093929190818152602001838380828437600081840152601f19601f820116905080830192505050505050509192919290505050610ec2565b005b6105816004803603604081101561054b57600080fd5b8101908080359060200190929190803573ffffffffffffffffffffffffffffffffffffffff16906020019092919050505061134d565b005b6105cf6004803603604081101561059957600080fd5b8101908080359060200190929190803573ffffffffffffffffffffffffffffffffffffffff1690602001909291905050506113d7565b005b61071b600480360360408110156105e757600080fd5b810190808035906020019064010000000081111561060457600080fd5b82018360208201111561061657600080fd5b8035906020019184602083028401116401000000008311171561063857600080fd5b919080806020026020016040519081016040528093929190818152602001838360200280828437600081840152601f19601f8201169050808301925050505050505091929192908035906020019064010000000081111561069857600080fd5b8201836020820111156106aa57600080fd5b803590602001918460208302840111640100000000831117156106cc57600080fd5b919080806020026020016040519081016040528093929190818152602001838360200280828437600081840152601f19601f820116905080830192505050505050509192919290505050611470565b6040518080602001828103825283818151815260200191508051906020019060200280838360005b8381101561075e578082015181840152602081019050610743565b505050509050019250505060405180910390f35b61077a611662565b6040518082815260200191505060405180910390f35b6107de600480360360408110156107a657600080fd5b81019080803573ffffffffffffffffffffffffffffffffffffffff169060200190929190803515159060200190929190505050611686565b005b610816600480360360408110156107f657600080fd5b8101908080359060200190929190803590602001909291905050506116f1565b604051808273ffffffffffffffffffffffffffffffffffffffff16815260200191505060405180910390f35b61088e6004803603604081101561085857600080fd5b8101908080359060200190929190803573ffffffffffffffffffffffffffffffffffffffff169060200190929190505050611723565b60405180821515815260200191505060405180910390f35b61095f600480360360208110156108bc57600080fd5b81019080803590602001906401000000008111156108d957600080fd5b8201836020820111156108eb57600080fd5b8035906020019184600183028401116401000000008311171561090d57600080fd5b91908080601f016020809104026020016040519081016040528093929190818152602001838380828437600081840152601f19601f820116905080830192505050505050509192919290505050611755565b005b6109696117e7565b6040518082815260200191505060405180910390f35b6109cd6004803603604081101561099557600080fd5b81019080803573ffffffffffffffffffffffffffffffffffffffff1690602001909291908035151590602001909291905050506117ee565b005b610a1f600480360360408110156109e557600080fd5b81019080803573ffffffffffffffffffffffffffffffffffffffff169060200190929190803561ffff169060200190929190505050611987565b6040518082815260200191505060405180910390f35b610a6160048036036020811015610a4b57600080fd5b8101908080359060200190929190505050611a76565b6040518082815260200191505060405180910390f35b610ac360048036036040811015610a8d57600080fd5b8101908080359060200190929190803573ffffffffffffffffffffffffffffffffffffffff169060200190929190505050611a9d565b005b610b2760048036036040811015610adb57600080fd5b81019080803573ffffffffffffffffffffffffffffffffffffffff169060200190929190803573ffffffffffffffffffffffffffffffffffffffff169060200190929190505050611b27565b60405180821515815260200191505060405180910390f35b610c4c600480360360a0811015610b5557600080fd5b81019080803573ffffffffffffffffffffffffffffffffffffffff169060200190929190803573ffffffffffffffffffffffffffffffffffffffff169060200190929190803590602001909291908035906020019092919080359060200190640100000000811115610bc657600080fd5b820183602082011115610bd857600080fd5b80359060200191846001830284011164010000000083111715610bfa57600080fd5b91908080601f016020809104026020016040519081016040528093929190818152602001838380828437600081840152601f19601f820116905080830192505050505050509192919290505050611bbb565b005b610ca460048036036060811015610c6457600080fd5b81019080803573ffffffffffffffffffffffffffffffffffffffff1690602001909291908035906020019092919080359060200190929190505050611f30565b005b60008073ffffffffffffffffffffffffffffffffffffffff168373ffffffffffffffffffffffffffffffffffffffff161415610d2d576040517f08c379a000000000000000000000000000000000000000000000000000000000815260040180806020018281038252602b8152602001806132f5602b913960400191505060405180910390fd5b6001600083815260200190815260200160002060008473ffffffffffffffffffffffffffffffffffffffff1673ffffffffffffffffffffffffffffffffffffffff16815260200190815260200160002054905092915050565b6000806000837bffffffffffffffffffffffffffffffffffffffffffffffffffffffff19167bffffffffffffffffffffffffffffffffffffffffffffffffffffffff1916815260200190815260200160002060009054906101000a900460ff169050919050565b606060038054600181600116156101000203166002900480601f016020809104026020016040519081016040528092919081815260200182805460018160011615610100020316600290048015610e855780601f10610e5a57610100808354040283529160200191610e85565b820191906000526020600020905b815481529060010190602001808311610e6857829003601f168201915b50505050509050919050565b6000610e9d6005612013565b905090565b600060046000838152602001908152602001600020600201549050919050565b8151835114610f1c576040517f08c379a00000000000000000000000000000000000000000000000000000000081526004018080602001828103825260288152602001806134c46028913960400191505060405180910390fd5b600073ffffffffffffffffffffffffffffffffffffffff168473ffffffffffffffffffffffffffffffffffffffff161415610fa2576040517f08c379a00000000000000000000000000000000000000000000000000000000081526004018080602001828103825260258152602001806133ce6025913960400191505060405180910390fd5b610faa612021565b73ffffffffffffffffffffffffffffffffffffffff168573ffffffffffffffffffffffffffffffffffffffff161480610ff05750610fef85610fea612021565b611b27565b5b611045576040517f08c379a00000000000000000000000000000000000000000000000000000000081526004018080602001828103825260328152602001806133f36032913960400191505060405180910390fd5b600061104f612021565b905061105f818787878787612029565b60005b845181101561123057600085828151811061107957fe5b60200260200101519050600085838151811061109157fe5b60200260200101519050611118816040518060600160405280602a8152602001613448602a91396001600086815260200190815260200160002060008d73ffffffffffffffffffffffffffffffffffffffff1673ffffffffffffffffffffffffffffffffffffffff168152602001908152602001600020546120319092919063ffffffff16565b6001600084815260200190815260200160002060008b73ffffffffffffffffffffffffffffffffffffffff1673ffffffffffffffffffffffffffffffffffffffff168152602001908152602001600020819055506111cf816001600085815260200190815260200160002060008b73ffffffffffffffffffffffffffffffffffffffff1673ffffffffffffffffffffffffffffffffffffffff168152602001908152602001600020546120f190919063ffffffff16565b6001600084815260200190815260200160002060008a73ffffffffffffffffffffffffffffffffffffffff1673ffffffffffffffffffffffffffffffffffffffff168152602001908152602001600020819055505050806001019050611062565b508473ffffffffffffffffffffffffffffffffffffffff168673ffffffffffffffffffffffffffffffffffffffff168273ffffffffffffffffffffffffffffffffffffffff167f4a39dc06d4c0dbc64b70af90fd698a233a518aa5d07e595d983b8c0526c8f7fb8787604051808060200180602001838103835285818151815260200191508051906020019060200280838360005b838110156112e05780820151818401526020810190506112c5565b50505050905001838103825284818151815260200191508051906020019060200280838360005b83811015611322578082015181840152602081019050611307565b5050505090500194505050505060405180910390a4611345818787878787612179565b505050505050565b611374600460008481526020019081526020016000206002015461136f612021565b611723565b6113c9576040517f08c379a000000000000000000000000000000000000000000000000000000000815260040180806020018281038252602f81526020018061329d602f913960400191505060405180910390fd5b6113d38282612508565b5050565b6113df612021565b73ffffffffffffffffffffffffffffffffffffffff168173ffffffffffffffffffffffffffffffffffffffff1614611462576040517f08c379a000000000000000000000000000000000000000000000000000000000815260040180806020018281038252602f81526020018061350d602f913960400191505060405180910390fd5b61146c828261259c565b5050565b606081518351146114cc576040517f08c379a000000000000000000000000000000000000000000000000000000000815260040180806020018281038252602981526020018061349b6029913960400191505060405180910390fd5b6060835167ffffffffffffffff811180156114e657600080fd5b506040519080825280602002602001820160405280156115155781602001602082028036833780820191505090505b50905060005b845181101561165757600073ffffffffffffffffffffffffffffffffffffffff1685828151811061154857fe5b602002602001015173ffffffffffffffffffffffffffffffffffffffff1614156115bd576040517f08c379a00000000000000000000000000000000000000000000000000000000081526004018080602001828103825260318152602001806133206031913960400191505060405180910390fd5b600160008583815181106115cd57fe5b6020026020010151815260200190815260200160002060008683815181106115f157fe5b602002602001015173ffffffffffffffffffffffffffffffffffffffff1673ffffffffffffffffffffffffffffffffffffffff1681526020019081526020016000205482828151811061164057fe5b60200260200101818152505080600101905061151b565b508091505092915050565b7f797343f8d6a29aafeb3aaf0910a8973e0081c60c2f6c1f775cd9f76ea348fc1e81565b6001151581151514156116c2576116bd7f797343f8d6a29aafeb3aaf0910a8973e0081c60c2f6c1f775cd9f76ea348fc1e8361134d565b6116ed565b6116ec7f797343f8d6a29aafeb3aaf0910a8973e0081c60c2f6c1f775cd9f76ea348fc1e83611a9d565b5b5050565b600061171b826004600086815260200190815260200160002060000161263090919063ffffffff16565b905092915050565b600061174d826004600086815260200190815260200160002060000161264a90919063ffffffff16565b905092915050565b6117696000801b611764612021565b611723565b6117db576040517f08c379a000000000000000000000000000000000000000000000000000000000815260040180806020018281038252601c8152602001807f4d7573742062652061646d696e20746f206368616e6765207572692e0000000081525060200191505060405180910390fd5b6117e48161267a565b50565b6000801b81565b8173ffffffffffffffffffffffffffffffffffffffff1661180d612021565b73ffffffffffffffffffffffffffffffffffffffff16141561187a576040517f08c379a00000000000000000000000000000000000000000000000000000000081526004018080602001828103825260298152602001806134726029913960400191505060405180910390fd5b8060026000611887612021565b73ffffffffffffffffffffffffffffffffffffffff1673ffffffffffffffffffffffffffffffffffffffff16815260200190815260200160002060008473ffffffffffffffffffffffffffffffffffffffff1673ffffffffffffffffffffffffffffffffffffffff16815260200190815260200160002060006101000a81548160ff0219169083151502179055508173ffffffffffffffffffffffffffffffffffffffff16611934612021565b73ffffffffffffffffffffffffffffffffffffffff167f17307eab39ab6107e8899845ad3d59bd9653f200f220920489ca2b5937696c318360405180821515815260200191505060405180910390a35050565b60006119ba7f797343f8d6a29aafeb3aaf0910a8973e0081c60c2f6c1f775cd9f76ea348fc1e6119b5612021565b611723565b611a0f576040517f08c379a00000000000000000000000000000000000000000000000000000000081526004018080602001828103825260298152602001806132cc6029913960400191505060405180910390fd5b6000611a1b6005612013565b9050611a276005612694565b611a6c84828561ffff166040518060400160405280600381526020017f30783000000000000000000000000000000000000000000000000000000000008152506126aa565b8091505092915050565b6000611a96600460008481526020019081526020016000206000016128ad565b9050919050565b611ac46004600084815260200190815260200160002060020154611abf612021565b611723565b611b19576040517f08c379a000000000000000000000000000000000000000000000000000000000815260040180806020018281038252603081526020018061339e6030913960400191505060405180910390fd5b611b23828261259c565b5050565b6000600260008473ffffffffffffffffffffffffffffffffffffffff1673ffffffffffffffffffffffffffffffffffffffff16815260200190815260200160002060008373ffffffffffffffffffffffffffffffffffffffff1673ffffffffffffffffffffffffffffffffffffffff16815260200190815260200160002060009054906101000a900460ff16905092915050565b600073ffffffffffffffffffffffffffffffffffffffff168473ffffffffffffffffffffffffffffffffffffffff161415611c41576040517f08c379a00000000000000000000000000000000000000000000000000000000081526004018080602001828103825260258152602001806133ce6025913960400191505060405180910390fd5b611c49612021565b73ffffffffffffffffffffffffffffffffffffffff168573ffffffffffffffffffffffffffffffffffffffff161480611c8f5750611c8e85611c89612021565b611b27565b5b611ce4576040517f08c379a00000000000000000000000000000000000000000000000000000000081526004018080602001828103825260298152602001806133756029913960400191505060405180910390fd5b6000611cee612021565b9050611d0e818787611cff886128c2565b611d08886128c2565b87612029565b611d8b836040518060600160405280602a8152602001613448602a91396001600088815260200190815260200160002060008a73ffffffffffffffffffffffffffffffffffffffff1673ffffffffffffffffffffffffffffffffffffffff168152602001908152602001600020546120319092919063ffffffff16565b6001600086815260200190815260200160002060008873ffffffffffffffffffffffffffffffffffffffff1673ffffffffffffffffffffffffffffffffffffffff16815260200190815260200160002081905550611e42836001600087815260200190815260200160002060008873ffffffffffffffffffffffffffffffffffffffff1673ffffffffffffffffffffffffffffffffffffffff168152602001908152602001600020546120f190919063ffffffff16565b6001600086815260200190815260200160002060008773ffffffffffffffffffffffffffffffffffffffff1673ffffffffffffffffffffffffffffffffffffffff168152602001908152602001600020819055508473ffffffffffffffffffffffffffffffffffffffff168673ffffffffffffffffffffffffffffffffffffffff168273ffffffffffffffffffffffffffffffffffffffff167fc3d58168c5ae7397731d063d5bbf3d657854427343f4c083240f7aacaa2d0f628787604051808381526020018281526020019250505060405180910390a4611f28818787878787612932565b505050505050565b611f38612021565b73ffffffffffffffffffffffffffffffffffffffff168373ffffffffffffffffffffffffffffffffffffffff161480611f7e5750611f7d83611f78612021565b611b27565b5b611fd3576040517f08c379a00000000000000000000000000000000000000000000000000000000081526004018080602001828103825260298152602001806133756029913960400191505060405180910390fd5b611fde838383612c3f565b505050565b600061200b836000018373ffffffffffffffffffffffffffffffffffffffff1660001b612e5b565b905092915050565b600081600001549050919050565b600033905090565b505050505050565b60008383111582906120de576040517f08c379a00000000000000000000000000000000000000000000000000000000081526004018080602001828103825283818151815260200191508051906020019080838360005b838110156120a3578082015181840152602081019050612088565b50505050905090810190601f1680156120d05780820380516001836020036101000a031916815260200191505b509250505060405180910390fd5b5060008385039050809150509392505050565b60008082840190508381101561216f576040517f08c379a000000000000000000000000000000000000000000000000000000000815260040180806020018281038252601b8152602001807f536166654d6174683a206164646974696f6e206f766572666c6f77000000000081525060200191505060405180910390fd5b8091505092915050565b6121988473ffffffffffffffffffffffffffffffffffffffff16612ecb565b15612500578373ffffffffffffffffffffffffffffffffffffffff1663bc197c8187878686866040518663ffffffff1660e01b8152600401808673ffffffffffffffffffffffffffffffffffffffff1681526020018573ffffffffffffffffffffffffffffffffffffffff168152602001806020018060200180602001848103845287818151815260200191508051906020019060200280838360005b83811015612250578082015181840152602081019050612235565b50505050905001848103835286818151815260200191508051906020019060200280838360005b83811015612292578082015181840152602081019050612277565b50505050905001848103825285818151815260200191508051906020019080838360005b838110156122d15780820151818401526020810190506122b6565b50505050905090810190601f1680156122fe5780820380516001836020036101000a031916815260200191505b5098505050505050505050602060405180830381600087803b15801561232357600080fd5b505af192505050801561235757506040513d602081101561234357600080fd5b810190808051906020019092919050505060015b61246157612363613168565b8061236e5750612410565b806040517f08c379a00000000000000000000000000000000000000000000000000000000081526004018080602001828103825283818151815260200191508051906020019080838360005b838110156123d55780820151818401526020810190506123ba565b50505050905090810190601f1680156124025780820380516001836020036101000a031916815260200191505b509250505060405180910390fd5b6040517f08c379a000000000000000000000000000000000000000000000000000000000815260040180806020018281038252603481526020018061321f6034913960400191505060405180910390fd5b63bc197c8160e01b7bffffffffffffffffffffffffffffffffffffffffffffffffffffffff1916817bffffffffffffffffffffffffffffffffffffffffffffffffffffffff1916146124fe576040517f08c379a00000000000000000000000000000000000000000000000000000000081526004018080602001828103825260288152602001806132756028913960400191505060405180910390fd5b505b505050505050565b6125308160046000858152602001908152602001600020600001611fe390919063ffffffff16565b156125985761253d612021565b73ffffffffffffffffffffffffffffffffffffffff168173ffffffffffffffffffffffffffffffffffffffff16837f2f8788117e7eff1d82e926ec794901d17c78024a50270940304540a733656f0d60405160405180910390a45b5050565b6125c48160046000858152602001908152602001600020600001612ede90919063ffffffff16565b1561262c576125d1612021565b73ffffffffffffffffffffffffffffffffffffffff168173ffffffffffffffffffffffffffffffffffffffff16837ff6391f5c32d9c69d2a47ea670b442974b53935d1edc7fd64eb21e047a839171b60405160405180910390a45b5050565b600061263f8360000183612f0e565b60001c905092915050565b6000612672836000018373ffffffffffffffffffffffffffffffffffffffff1660001b612f91565b905092915050565b80600390805190602001906126909291906130ad565b5050565b6001816000016000828254019250508190555050565b600073ffffffffffffffffffffffffffffffffffffffff168473ffffffffffffffffffffffffffffffffffffffff161415612730576040517f08c379a00000000000000000000000000000000000000000000000000000000081526004018080602001828103825260218152602001806134ec6021913960400191505060405180910390fd5b600061273a612021565b905061275b8160008761274c886128c2565b612755886128c2565b87612029565b6127be836001600087815260200190815260200160002060008873ffffffffffffffffffffffffffffffffffffffff1673ffffffffffffffffffffffffffffffffffffffff168152602001908152602001600020546120f190919063ffffffff16565b6001600086815260200190815260200160002060008773ffffffffffffffffffffffffffffffffffffffff1673ffffffffffffffffffffffffffffffffffffffff168152602001908152602001600020819055508473ffffffffffffffffffffffffffffffffffffffff16600073ffffffffffffffffffffffffffffffffffffffff168273ffffffffffffffffffffffffffffffffffffffff167fc3d58168c5ae7397731d063d5bbf3d657854427343f4c083240f7aacaa2d0f628787604051808381526020018281526020019250505060405180910390a46128a681600087878787612932565b5050505050565b60006128bb82600001612fb4565b9050919050565b606080600167ffffffffffffffff811180156128dd57600080fd5b5060405190808252806020026020018201604052801561290c5781602001602082028036833780820191505090505b509050828160008151811061291d57fe5b60200260200101818152505080915050919050565b6129518473ffffffffffffffffffffffffffffffffffffffff16612ecb565b15612c37578373ffffffffffffffffffffffffffffffffffffffff1663f23a6e6187878686866040518663ffffffff1660e01b8152600401808673ffffffffffffffffffffffffffffffffffffffff1681526020018573ffffffffffffffffffffffffffffffffffffffff16815260200184815260200183815260200180602001828103825283818151815260200191508051906020019080838360005b83811015612a0a5780820151818401526020810190506129ef565b50505050905090810190601f168015612a375780820380516001836020036101000a031916815260200191505b509650505050505050602060405180830381600087803b158015612a5a57600080fd5b505af1925050508015612a8e57506040513d6020811015612a7a57600080fd5b810190808051906020019092919050505060015b612b9857612a9a613168565b80612aa55750612b47565b806040517f08c379a00000000000000000000000000000000000000000000000000000000081526004018080602001828103825283818151815260200191508051906020019080838360005b83811015612b0c578082015181840152602081019050612af1565b50505050905090810190601f168015612b395780820380516001836020036101000a031916815260200191505b509250505060405180910390fd5b6040517f08c379a000000000000000000000000000000000000000000000000000000000815260040180806020018281038252603481526020018061321f6034913960400191505060405180910390fd5b63f23a6e6160e01b7bffffffffffffffffffffffffffffffffffffffffffffffffffffffff1916817bffffffffffffffffffffffffffffffffffffffffffffffffffffffff191614612c35576040517f08c379a00000000000000000000000000000000000000000000000000000000081526004018080602001828103825260288152602001806132756028913960400191505060405180910390fd5b505b505050505050565b600073ffffffffffffffffffffffffffffffffffffffff168373ffffffffffffffffffffffffffffffffffffffff161415612cc5576040517f08c379a00000000000000000000000000000000000000000000000000000000081526004018080602001828103825260238152602001806134256023913960400191505060405180910390fd5b6000612ccf612021565b9050612cff81856000612ce1876128c2565b612cea876128c2565b60405180602001604052806000815250612029565b612d7c82604051806060016040528060248152602001613351602491396001600087815260200190815260200160002060008873ffffffffffffffffffffffffffffffffffffffff1673ffffffffffffffffffffffffffffffffffffffff168152602001908152602001600020546120319092919063ffffffff16565b6001600085815260200190815260200160002060008673ffffffffffffffffffffffffffffffffffffffff1673ffffffffffffffffffffffffffffffffffffffff16815260200190815260200160002081905550600073ffffffffffffffffffffffffffffffffffffffff168473ffffffffffffffffffffffffffffffffffffffff168273ffffffffffffffffffffffffffffffffffffffff167fc3d58168c5ae7397731d063d5bbf3d657854427343f4c083240f7aacaa2d0f628686604051808381526020018281526020019250505060405180910390a450505050565b6000612e678383612f91565b612ec0578260000182908060018154018082558091505060019003906000526020600020016000909190919091505582600001805490508360010160008481526020019081526020016000208190555060019050612ec5565b600090505b92915050565b600080823b905060008111915050919050565b6000612f06836000018373ffffffffffffffffffffffffffffffffffffffff1660001b612fc5565b905092915050565b600081836000018054905011612f6f576040517f08c379a00000000000000000000000000000000000000000000000000000000081526004018080602001828103825260228152602001806132536022913960400191505060405180910390fd5b826000018281548110612f7e57fe5b9060005260206000200154905092915050565b600080836001016000848152602001908152602001600020541415905092915050565b600081600001805490509050919050565b600080836001016000848152602001908152602001600020549050600081146130a1576000600182039050600060018660000180549050039050600086600001828154811061301057fe5b906000526020600020015490508087600001848154811061302d57fe5b906000526020600020018190555060018301876001016000838152602001908152602001600020819055508660000180548061306557fe5b600190038181906000526020600020016000905590558660010160008781526020019081526020016000206000905560019450505050506130a7565b60009150505b92915050565b828054600181600116156101000203166002900490600052602060002090601f016020900481019282601f106130ee57805160ff191683800117855561311c565b8280016001018555821561311c579182015b8281111561311b578251825591602001919060010190613100565b5b509050613129919061312d565b5090565b5b8082111561314657600081600090555060010161312e565b5090565b6000601f19601f8301169050919050565b60008160e01c9050919050565b600060443d10156131785761321b565b60046000803e61318960005161315b565b6308c379a0811461319a575061321b565b60405160043d036004823e80513d602482011167ffffffffffffffff821117156131c65750505061321b565b808201805167ffffffffffffffff8111156131e557505050505061321b565b8060208301013d85018111156132005750505050505061321b565b6132098261314a565b60208401016040528296505050505050505b9056fe455243313135353a207472616e7366657220746f206e6f6e2045524331313535526563656976657220696d706c656d656e746572456e756d657261626c655365743a20696e646578206f7574206f6620626f756e6473455243313135353a204552433131353552656365697665722072656a656374656420746f6b656e73416363657373436f6e74726f6c3a2073656e646572206d75737420626520616e2061646d696e20746f206772616e74504c4154464f524d5f524f4c45206e656564656420746f206d696e74206e65772062617272656c732e455243313135353a2062616c616e636520717565727920666f7220746865207a65726f2061646472657373455243313135353a2062617463682062616c616e636520717565727920666f7220746865207a65726f2061646472657373455243313135353a206275726e20616d6f756e7420657863656564732062616c616e6365455243313135353a2063616c6c6572206973206e6f74206f776e6572206e6f7220617070726f766564416363657373436f6e74726f6c3a2073656e646572206d75737420626520616e2061646d696e20746f207265766f6b65455243313135353a207472616e7366657220746f20746865207a65726f2061646472657373455243313135353a207472616e736665722063616c6c6572206973206e6f74206f776e6572206e6f7220617070726f766564455243313135353a206275726e2066726f6d20746865207a65726f2061646472657373455243313135353a20696e73756666696369656e742062616c616e636520666f72207472616e73666572455243313135353a2073657474696e6720617070726f76616c2073746174757320666f722073656c66455243313135353a206163636f756e747320616e6420696473206c656e677468206d69736d61746368455243313135353a2069647320616e6420616d6f756e7473206c656e677468206d69736d61746368455243313135353a206d696e7420746f20746865207a65726f2061646472657373416363657373436f6e74726f6c3a2063616e206f6e6c792072656e6f756e636520726f6c657320666f722073656c66a2646970667358221220164b0383e7fd52190fe7dcf4a34b29381f6e145bddc8c0c096aff617c5d6289e64736f6c63430007030033",
  "linkReferences": {},
  "deployedLinkReferences": {}
}