{
  "_format": "hh-sol-artifact-1",
  "contractName": "WhiskeyPlatformV1",
  "sourceName": "contracts/WhiskeyPlatformV1.sol",
  "abi": [
    {
      "inputs": [
        {
          "internalType": "address",
          "name": "barrelHouseAddress",
          "type": "address"
        }
      ],
      "stateMutability": "nonpayable",
      "type": "constructor"
    },
    {
      "anonymous": false,
      "inputs": [
        {
          "indexed": true,
          "internalType": "address",
          "name": "previousOwner",
          "type": "address"
        },
        {
          "indexed": true,
          "internalType": "address",
          "name": "newOwner",
          "type": "address"
        }
      ],
      "name": "OwnershipTransferred",
      "type": "event"
    },
    {
      "inputs": [
        {
          "internalType": "address",
          "name": "distilleryAddress",
          "type": "address"
        }
      ],
      "name": "approveDistillery",
      "outputs": [],
      "stateMutability": "nonpayable",
      "type": "function"
    },
    {
      "inputs": [
        {
          "internalType": "uint256",
          "name": "tokenId",
          "type": "uint256"
        }
      ],
      "name": "availableBottles",
      "outputs": [
        {
          "internalType": "uint256",
          "name": "",
          "type": "uint256"
        }
      ],
      "stateMutability": "view",
      "type": "function"
    },
    {
      "inputs": [],
      "name": "barrelHouse",
      "outputs": [
        {
          "internalType": "contract BarrelHouse",
          "name": "",
          "type": "address"
        }
      ],
      "stateMutability": "view",
      "type": "function"
    },
    {
      "inputs": [
        {
          "internalType": "uint256",
          "name": "tokenId",
          "type": "uint256"
        }
      ],
      "name": "barrelMaturationData",
      "outputs": [
        {
          "internalType": "uint256",
          "name": "",
          "type": "uint256"
        },
        {
          "internalType": "uint256",
          "name": "",
          "type": "uint256"
        }
      ],
      "stateMutability": "view",
      "type": "function"
    },
    {
      "inputs": [
        {
          "internalType": "uint256",
          "name": "tokenId",
          "type": "uint256"
        },
        {
          "internalType": "uint256",
          "name": "targetDate",
          "type": "uint256"
        }
      ],
      "name": "bottlePriceData",
      "outputs": [
        {
          "internalType": "uint32",
          "name": "",
          "type": "uint32"
        },
        {
          "internalType": "uint32",
          "name": "",
          "type": "uint32"
        },
        {
          "internalType": "uint32",
          "name": "",
          "type": "uint32"
        },
        {
          "internalType": "uint32",
          "name": "",
          "type": "uint32"
        }
      ],
      "stateMutability": "view",
      "type": "function"
    },
    {
      "inputs": [
        {
          "internalType": "uint32",
          "name": "startPriceUsd",
          "type": "uint32"
        },
        {
          "internalType": "uint32",
          "name": "endPriceUsd",
          "type": "uint32"
        },
        {
          "internalType": "uint32",
          "name": "feesPerBottleUsd",
          "type": "uint32"
        },
        {
          "internalType": "uint16",
          "name": "totalBottles",
          "type": "uint16"
        },
        {
          "internalType": "uint16",
          "name": "buybackPercent",
          "type": "uint16"
        },
        {
          "internalType": "uint256",
          "name": "startTimestamp",
          "type": "uint256"
        },
        {
          "internalType": "uint256",
          "name": "endTimestamp",
          "type": "uint256"
        }
      ],
      "name": "createWhiskeyListing",
      "outputs": [
        {
          "internalType": "uint256",
          "name": "",
          "type": "uint256"
        }
      ],
      "stateMutability": "nonpayable",
      "type": "function"
    },
    {
      "inputs": [
        {
          "internalType": "uint256",
          "name": "tokenId",
          "type": "uint256"
        }
      ],
      "name": "currentBottlePrice",
      "outputs": [
        {
          "internalType": "uint32",
          "name": "",
          "type": "uint32"
        },
        {
          "internalType": "uint32",
          "name": "",
          "type": "uint32"
        },
        {
          "internalType": "uint32",
          "name": "",
          "type": "uint32"
        },
        {
          "internalType": "uint32",
          "name": "",
          "type": "uint32"
        }
      ],
      "stateMutability": "view",
      "type": "function"
    },
    {
      "inputs": [
        {
          "internalType": "address",
          "name": "distilleryAddress",
          "type": "address"
        }
      ],
      "name": "isApprovedToMint",
      "outputs": [
        {
          "internalType": "bool",
          "name": "",
          "type": "bool"
        }
      ],
      "stateMutability": "view",
      "type": "function"
    },
    {
      "inputs": [
        {
          "internalType": "address",
          "name": "",
          "type": "address"
        },
        {
          "internalType": "address",
          "name": "",
          "type": "address"
        },
        {
          "internalType": "uint256[]",
          "name": "",
          "type": "uint256[]"
        },
        {
          "internalType": "uint256[]",
          "name": "",
          "type": "uint256[]"
        },
        {
          "internalType": "bytes",
          "name": "",
          "type": "bytes"
        }
      ],
      "name": "onERC1155BatchReceived",
      "outputs": [
        {
          "internalType": "bytes4",
          "name": "",
          "type": "bytes4"
        }
      ],
      "stateMutability": "nonpayable",
      "type": "function"
    },
    {
      "inputs": [
        {
          "internalType": "address",
          "name": "",
          "type": "address"
        },
        {
          "internalType": "address",
          "name": "",
          "type": "address"
        },
        {
          "internalType": "uint256",
          "name": "",
          "type": "uint256"
        },
        {
          "internalType": "uint256",
          "name": "",
          "type": "uint256"
        },
        {
          "internalType": "bytes",
          "name": "",
          "type": "bytes"
        }
      ],
      "name": "onERC1155Received",
      "outputs": [
        {
          "internalType": "bytes4",
          "name": "",
          "type": "bytes4"
        }
      ],
      "stateMutability": "nonpayable",
      "type": "function"
    },
    {
      "inputs": [],
      "name": "owner",
      "outputs": [
        {
          "internalType": "address",
          "name": "",
          "type": "address"
        }
      ],
      "stateMutability": "view",
      "type": "function"
    },
    {
      "inputs": [
        {
          "internalType": "uint256",
          "name": "tokenId",
          "type": "uint256"
        },
        {
          "internalType": "uint16",
          "name": "quantity",
          "type": "uint16"
        }
      ],
      "name": "purchaseBottles",
      "outputs": [],
      "stateMutability": "payable",
      "type": "function"
    },
    {
      "inputs": [],
      "name": "renounceOwnership",
      "outputs": [],
      "stateMutability": "nonpayable",
      "type": "function"
    },
    {
      "inputs": [
        {
          "internalType": "bytes4",
          "name": "interfaceId",
          "type": "bytes4"
        }
      ],
      "name": "supportsInterface",
      "outputs": [
        {
          "internalType": "bool",
          "name": "",
          "type": "bool"
        }
      ],
      "stateMutability": "view",
      "type": "function"
    },
    {
      "inputs": [
        {
          "internalType": "uint256",
          "name": "tokenId",
          "type": "uint256"
        }
      ],
      "name": "totalBottles",
      "outputs": [
        {
          "internalType": "uint256",
          "name": "",
          "type": "uint256"
        }
      ],
      "stateMutability": "view",
      "type": "function"
    },
    {
      "inputs": [
        {
          "internalType": "address",
          "name": "newOwner",
          "type": "address"
        }
      ],
      "name": "transferOwnership",
      "outputs": [],
      "stateMutability": "nonpayable",
      "type": "function"
    }
  ],
  "bytecode": "0x60806040523480156200001157600080fd5b50604051620023f1380380620023f1833981810160405260208110156200003757600080fd5b8101908080519060200190929190505050620000606301ffc9a760e01b620001ef60201b60201c565b6200008163bc197c8160e01b63f23a6e6160e01b18620001ef60201b60201c565b600062000093620002f860201b60201c565b905080600160006101000a81548173ffffffffffffffffffffffffffffffffffffffff021916908373ffffffffffffffffffffffffffffffffffffffff1602179055508073ffffffffffffffffffffffffffffffffffffffff16600073ffffffffffffffffffffffffffffffffffffffff167f8be0079c531659141344cd1fd0a4f28419497f9722a3daafe3b4186f6b6457e060405160405180910390a35080600260006101000a81548173ffffffffffffffffffffffffffffffffffffffff021916908373ffffffffffffffffffffffffffffffffffffffff1602179055506200019362000187620002f860201b60201c565b6200030060201b60201c565b739326bfa02add2366b30bacb125260af641031331600660006101000a81548173ffffffffffffffffffffffffffffffffffffffff021916908373ffffffffffffffffffffffffffffffffffffffff160217905550506200042e565b63ffffffff60e01b817bffffffffffffffffffffffffffffffffffffffffffffffffffffffff191614156200028c576040517f08c379a000000000000000000000000000000000000000000000000000000000815260040180806020018281038252601c8152602001807f4552433136353a20696e76616c696420696e746572666163652069640000000081525060200191505060405180910390fd5b6001600080837bffffffffffffffffffffffffffffffffffffffffffffffffffffffff19167bffffffffffffffffffffffffffffffffffffffffffffffffffffffff1916815260200190815260200160002060006101000a81548160ff02191690831515021790555050565b600033905090565b62000310620002f860201b60201c565b73ffffffffffffffffffffffffffffffffffffffff16600160009054906101000a900473ffffffffffffffffffffffffffffffffffffffff1673ffffffffffffffffffffffffffffffffffffffff1614620003d3576040517f08c379a00000000000000000000000000000000000000000000000000000000081526004018080602001828103825260208152602001807f4f776e61626c653a2063616c6c6572206973206e6f7420746865206f776e657281525060200191505060405180910390fd5b6001600560008373ffffffffffffffffffffffffffffffffffffffff1673ffffffffffffffffffffffffffffffffffffffff16815260200190815260200160002060006101000a81548160ff02191690831515021790555050565b611fb3806200043e6000396000f3fe6080604052600436106100f35760003560e01c80636766cfd61161008a578063bc197c8111610059578063bc197c811461050a578063e8920db61461076d578063f23a6e61146107f3578063f2fde38b14610942576100f3565b80636766cfd6146103b75780636e27e45d1461045c578063715018a6146104b25780638da5cb5b146104c9576100f3565b806336e1f3dc116100c657806336e1f3dc146102495780633a5c859c146102855780635397a298146102d4578063663d64a714610350576100f3565b806301ffc9a7146100f8578063048c0201146101685780631cb2562c146101b95780631f361ea714610208575b600080fd5b34801561010457600080fd5b506101506004803603602081101561011b57600080fd5b8101908080357bffffffffffffffffffffffffffffffffffffffffffffffffffffffff19169060200190929190505050610993565b60405180821515815260200191505060405180910390f35b34801561017457600080fd5b506101b76004803603602081101561018b57600080fd5b81019080803573ffffffffffffffffffffffffffffffffffffffff1690602001909291905050506109fa565b005b3480156101c557600080fd5b506101f2600480360360208110156101dc57600080fd5b8101908080359060200190929190505050610b1f565b6040518082815260200191505060405180910390f35b34801561021457600080fd5b5061021d610b51565b604051808273ffffffffffffffffffffffffffffffffffffffff16815260200191505060405180910390f35b6102836004803603604081101561025f57600080fd5b8101908080359060200190929190803561ffff169060200190929190505050610b77565b005b34801561029157600080fd5b506102be600480360360208110156102a857600080fd5b8101908080359060200190929190505050610f96565b6040518082815260200191505060405180910390f35b3480156102e057600080fd5b5061030d600480360360208110156102f757600080fd5b8101908080359060200190929190505050611155565b604051808563ffffffff1681526020018463ffffffff1681526020018363ffffffff1681526020018263ffffffff16815260200194505050505060405180910390f35b34801561035c57600080fd5b5061039f6004803603602081101561037357600080fd5b81019080803573ffffffffffffffffffffffffffffffffffffffff169060200190929190505050611174565b60405180821515815260200191505060405180910390f35b3480156103c357600080fd5b50610446600480360360e08110156103da57600080fd5b81019080803563ffffffff169060200190929190803563ffffffff169060200190929190803563ffffffff169060200190929190803561ffff169060200190929190803561ffff16906020019092919080359060200190929190803590602001909291905050506111ca565b6040518082815260200191505060405180910390f35b34801561046857600080fd5b506104956004803603602081101561047f57600080fd5b8101908080359060200190929190505050611623565b604051808381526020018281526020019250505060405180910390f35b3480156104be57600080fd5b506104c7611651565b005b3480156104d557600080fd5b506104de6117dc565b604051808273ffffffffffffffffffffffffffffffffffffffff16815260200191505060405180910390f35b34801561051657600080fd5b50610738600480360360a081101561052d57600080fd5b81019080803573ffffffffffffffffffffffffffffffffffffffff169060200190929190803573ffffffffffffffffffffffffffffffffffffffff1690602001909291908035906020019064010000000081111561058a57600080fd5b82018360208201111561059c57600080fd5b803590602001918460208302840111640100000000831117156105be57600080fd5b919080806020026020016040519081016040528093929190818152602001838360200280828437600081840152601f19601f8201169050808301925050505050505091929192908035906020019064010000000081111561061e57600080fd5b82018360208201111561063057600080fd5b8035906020019184602083028401116401000000008311171561065257600080fd5b919080806020026020016040519081016040528093929190818152602001838360200280828437600081840152601f19601f820116905080830192505050505050509192919290803590602001906401000000008111156106b257600080fd5b8201836020820111156106c457600080fd5b803590602001918460018302840111640100000000831117156106e657600080fd5b91908080601f016020809104026020016040519081016040528093929190818152602001838380828437600081840152601f19601f820116905080830192505050505050509192919290505050611806565b60405180827bffffffffffffffffffffffffffffffffffffffffffffffffffffffff1916815260200191505060405180910390f35b34801561077957600080fd5b506107b06004803603604081101561079057600080fd5b81019080803590602001909291908035906020019092919050505061181b565b604051808563ffffffff1681526020018463ffffffff1681526020018363ffffffff1681526020018263ffffffff16815260200194505050505060405180910390f35b3480156107ff57600080fd5b5061090d600480360360a081101561081657600080fd5b81019080803573ffffffffffffffffffffffffffffffffffffffff169060200190929190803573ffffffffffffffffffffffffffffffffffffffff16906020019092919080359060200190929190803590602001909291908035906020019064010000000081111561088757600080fd5b82018360208201111561089957600080fd5b803590602001918460018302840111640100000000831117156108bb57600080fd5b91908080601f016020809104026020016040519081016040528093929190818152602001838380828437600081840152601f19601f82011690508083019250505050505050919291929050505061194e565b60405180827bffffffffffffffffffffffffffffffffffffffffffffffffffffffff1916815260200191505060405180910390f35b34801561094e57600080fd5b506109916004803603602081101561096557600080fd5b81019080803573ffffffffffffffffffffffffffffffffffffffff169060200190929190505050611963565b005b6000806000837bffffffffffffffffffffffffffffffffffffffffffffffffffffffff19167bffffffffffffffffffffffffffffffffffffffffffffffffffffffff1916815260200190815260200160002060009054906101000a900460ff169050919050565b610a02611b73565b73ffffffffffffffffffffffffffffffffffffffff16600160009054906101000a900473ffffffffffffffffffffffffffffffffffffffff1673ffffffffffffffffffffffffffffffffffffffff1614610ac4576040517f08c379a00000000000000000000000000000000000000000000000000000000081526004018080602001828103825260208152602001807f4f776e61626c653a2063616c6c6572206973206e6f7420746865206f776e657281525060200191505060405180910390fd5b6001600560008373ffffffffffffffffffffffffffffffffffffffff1673ffffffffffffffffffffffffffffffffffffffff16815260200190815260200160002060006101000a81548160ff02191690831515021790555050565b600060036000838152602001908152602001600020600001600c9054906101000a900461ffff1661ffff169050919050565b600260009054906101000a900473ffffffffffffffffffffffffffffffffffffffff1681565b6000610b8283610f96565b90508161ffff16811015610bfe576040517f08c379a000000000000000000000000000000000000000000000000000000000815260040180806020018281038252601c8152602001807f4e6f7420656e6f75676820626f74746c657320617661696c61626c650000000081525060200191505060405180910390fd5b600080600080610c0e874261181b565b93509350935093506000610c378761ffff1683870163ffffffff16611b7b90919063ffffffff16565b90506000641cfb737044905060006008905060008213610ca2576040517f08c379a0000000000000000000000000000000000000000000000000000000008152600401808060200182810382526022815260200180611f5c6022913960400191505060405180910390fd5b6000610cc0836002840360ff16600a0a611c0190919063ffffffff16565b9050610d016040518060400160405280601381526020017f546f74616c205072696365205553443a2025730000000000000000000000000081525085611c4b565b610d526040518060400160405280601681526020017f546f74616c20507269636520696e204554483a20257300000000000000000000815250610d4d8387611b7b90919063ffffffff16565b611c4b565b6000610d678286611b7b90919063ffffffff16565b9050610da86040518060400160405280601481526020017f5061796d656e7420737570706c6965643a20257300000000000000000000000081525034611c4b565b610de76040518060400160405280600e81526020017f57656920636f737420697320257300000000000000000000000000000000000081525082611c4b565b80341015610e40576040517f08c379a000000000000000000000000000000000000000000000000000000000815260040180806020018281038252602c815260200180611e9e602c913960400191505060405180910390fd5b600260009054906101000a900473ffffffffffffffffffffffffffffffffffffffff1673ffffffffffffffffffffffffffffffffffffffff1663f242432a600460008f815260200190815260200160002060009054906101000a900473ffffffffffffffffffffffffffffffffffffffff16610eba611b73565b8f8f6040518563ffffffff1660e01b8152600401808573ffffffffffffffffffffffffffffffffffffffff1681526020018473ffffffffffffffffffffffffffffffffffffffff1681526020018381526020018261ffff16815260200180602001828103825260028152602001807f307800000000000000000000000000000000000000000000000000000000000081525060200195505050505050600060405180830381600087803b158015610f7057600080fd5b505af1158015610f84573d6000803e3d6000fd5b50505050505050505050505050505050565b60008073ffffffffffffffffffffffffffffffffffffffff166004600084815260200190815260200160002060009054906101000a900473ffffffffffffffffffffffffffffffffffffffff1673ffffffffffffffffffffffffffffffffffffffff161415611050576040517f08c379a0000000000000000000000000000000000000000000000000000000008152600401808060200182810382526021815260200180611f3b6021913960400191505060405180910390fd5b600260009054906101000a900473ffffffffffffffffffffffffffffffffffffffff1673ffffffffffffffffffffffffffffffffffffffff1662fdd58e6004600085815260200190815260200160002060009054906101000a900473ffffffffffffffffffffffffffffffffffffffff16846040518363ffffffff1660e01b8152600401808373ffffffffffffffffffffffffffffffffffffffff1681526020018281526020019250505060206040518083038186803b15801561111357600080fd5b505afa158015611127573d6000803e3d6000fd5b505050506040513d602081101561113d57600080fd5b81019080805190602001909291905050509050919050565b600080600080611165854261181b565b93509350935093509193509193565b6000600560008373ffffffffffffffffffffffffffffffffffffffff1673ffffffffffffffffffffffffffffffffffffffff16815260200190815260200160002060009054906101000a900460ff169050919050565b60006111dc6111d7611b73565b611174565b611231576040517f08c379a0000000000000000000000000000000000000000000000000000000008152600401808060200182810382526029815260200180611e756029913960400191505060405180910390fd5b600260009054906101000a900473ffffffffffffffffffffffffffffffffffffffff1673ffffffffffffffffffffffffffffffffffffffff1663e985e9c5611277611b73565b306040518363ffffffff1660e01b8152600401808373ffffffffffffffffffffffffffffffffffffffff1681526020018273ffffffffffffffffffffffffffffffffffffffff1681526020019250505060206040518083038186803b1580156112df57600080fd5b505afa1580156112f3573d6000803e3d6000fd5b505050506040513d602081101561130957600080fd5b810190808051906020019092919050505061136f576040517f08c379a000000000000000000000000000000000000000000000000000000000815260040180806020018281038252602a815260200180611eca602a913960400191505060405180910390fd5b8663ffffffff168863ffffffff1611156113f1576040517f08c379a000000000000000000000000000000000000000000000000000000000815260040180806020018281038252601e8152602001807f50726963652063616e6e6f7420646576616c7565206f7665722074696d65000081525060200191505060405180910390fd5b6000600260009054906101000a900473ffffffffffffffffffffffffffffffffffffffff1673ffffffffffffffffffffffffffffffffffffffff1663ad0be4bd611439611b73565b886040518363ffffffff1660e01b8152600401808373ffffffffffffffffffffffffffffffffffffffff1681526020018261ffff16815260200192505050602060405180830381600087803b15801561149157600080fd5b505af11580156114a5573d6000803e3d6000fd5b505050506040513d60208110156114bb57600080fd5b8101908080519060200190929190505050905060006127108661ffff16116114e357856114e7565b6127105b905060006003600084815260200190815260200160002090508a8160000160006101000a81548163ffffffff021916908363ffffffff160217905550898160000160046101000a81548163ffffffff021916908363ffffffff160217905550888160000160086101000a81548163ffffffff021916908363ffffffff1602179055508781600001600c6101000a81548161ffff021916908361ffff1602179055508181600001600e6101000a81548161ffff021916908361ffff1602179055508581600101819055508481600201819055506115c1611b73565b6004600085815260200190815260200160002060006101000a81548173ffffffffffffffffffffffffffffffffffffffff021916908373ffffffffffffffffffffffffffffffffffffffff160217905550829350505050979650505050505050565b6000806000600360008581526020019081526020016000209050806001015481600201549250925050915091565b611659611b73565b73ffffffffffffffffffffffffffffffffffffffff16600160009054906101000a900473ffffffffffffffffffffffffffffffffffffffff1673ffffffffffffffffffffffffffffffffffffffff161461171b576040517f08c379a00000000000000000000000000000000000000000000000000000000081526004018080602001828103825260208152602001807f4f776e61626c653a2063616c6c6572206973206e6f7420746865206f776e657281525060200191505060405180910390fd5b600073ffffffffffffffffffffffffffffffffffffffff16600160009054906101000a900473ffffffffffffffffffffffffffffffffffffffff1673ffffffffffffffffffffffffffffffffffffffff167f8be0079c531659141344cd1fd0a4f28419497f9722a3daafe3b4186f6b6457e060405160405180910390a36000600160006101000a81548173ffffffffffffffffffffffffffffffffffffffff021916908373ffffffffffffffffffffffffffffffffffffffff160217905550565b6000600160009054906101000a900473ffffffffffffffffffffffffffffffffffffffff16905090565b600063bc197c8160e01b905095945050505050565b6000806000806000600360008881526020019081526020016000209050600081600101549050600082600201549050600061185f8361185a848c611d52565b611d6b565b9050600083830390506000848303905060008660000160009054906101000a900463ffffffff16905060008760000160049054906101000a900463ffffffff1690506000828203905060006118d5866118c7878563ffffffff16611b7b90919063ffffffff16565b611c0190919063ffffffff16565b90506000818b60000160009054906101000a900463ffffffff16019050808b60000160009054906101000a900463ffffffff168c60000160049054906101000a900463ffffffff168d60000160089054906101000a900463ffffffff169e509e509e509e50505050505050505050505092959194509250565b600063f23a6e6160e01b905095945050505050565b61196b611b73565b73ffffffffffffffffffffffffffffffffffffffff16600160009054906101000a900473ffffffffffffffffffffffffffffffffffffffff1673ffffffffffffffffffffffffffffffffffffffff1614611a2d576040517f08c379a00000000000000000000000000000000000000000000000000000000081526004018080602001828103825260208152602001807f4f776e61626c653a2063616c6c6572206973206e6f7420746865206f776e657281525060200191505060405180910390fd5b600073ffffffffffffffffffffffffffffffffffffffff168173ffffffffffffffffffffffffffffffffffffffff161415611ab3576040517f08c379a0000000000000000000000000000000000000000000000000000000008152600401808060200182810382526026815260200180611ef46026913960400191505060405180910390fd5b8073ffffffffffffffffffffffffffffffffffffffff16600160009054906101000a900473ffffffffffffffffffffffffffffffffffffffff1673ffffffffffffffffffffffffffffffffffffffff167f8be0079c531659141344cd1fd0a4f28419497f9722a3daafe3b4186f6b6457e060405160405180910390a380600160006101000a81548173ffffffffffffffffffffffffffffffffffffffff021916908373ffffffffffffffffffffffffffffffffffffffff16021790555050565b600033905090565b600080831415611b8e5760009050611bfb565b6000828402905082848281611b9f57fe5b0414611bf6576040517f08c379a0000000000000000000000000000000000000000000000000000000008152600401808060200182810382526021815260200180611f1a6021913960400191505060405180910390fd5b809150505b92915050565b6000611c4383836040518060400160405280601a81526020017f536166654d6174683a206469766973696f6e206279207a65726f000000000000815250611d85565b905092915050565b611d4e82826040516024018080602001838152602001828103825284818151815260200191508051906020019080838360005b83811015611c99578082015181840152602081019050611c7e565b50505050905090810190601f168015611cc65780820380516001836020036101000a031916815260200191505b5093505050506040516020818303038152906040527f9710a9d0000000000000000000000000000000000000000000000000000000007bffffffffffffffffffffffffffffffffffffffffffffffffffffffff19166020820180517bffffffffffffffffffffffffffffffffffffffffffffffffffffffff8381831617835250505050611e4b565b5050565b6000818310611d615781611d63565b825b905092915050565b600081831015611d7b5781611d7d565b825b905092915050565b60008083118290611e31576040517f08c379a00000000000000000000000000000000000000000000000000000000081526004018080602001828103825283818151815260200191508051906020019080838360005b83811015611df6578082015181840152602081019050611ddb565b50505050905090810190601f168015611e235780820380516001836020036101000a031916815260200191505b509250505060405180910390fd5b506000838581611e3d57fe5b049050809150509392505050565b60008151905060006a636f6e736f6c652e6c6f679050602083016000808483855afa505050505056fe596f7520617265206e6f7420617574686f72697a656420746f20637265617465206c697374696e67215061796d656e7420646f6573206e6f7420636f76657220746865207072696365206f6620626f74746c65732e596f75206d75737420617070726f766520706c6174666f726d20746f2073656c6c20626f74746c65732e4f776e61626c653a206e6577206f776e657220697320746865207a65726f2061646472657373536166654d6174683a206d756c7469706c69636174696f6e206f766572666c6f77546f6b656e206d757374206861766520612076616c69642074726561737572792143616e6e6f7420627579207768656e20726174652069732030206f72206c6573732ea2646970667358221220aa82afbe32d0cfde77c07f771d175987faf6a6ae989345cc46f6392be8c1d78264736f6c63430007030033",
  "linkReferences": {},
  "deployedLinkReferences": {}
}