{
  "_format": "hh-sol-artifact-1",
  "contractName": "WhiskeyPlatformV1",
  "sourceName": "contracts/WhiskeyPlatformV1.sol",
  "abi": [
    {
      "inputs": [
        {
          "internalType": "address",
          "name": "barrelHouseAddress",
          "type": "address"
        },
        {
          "internalType": "address",
          "name": "wethGateway",
          "type": "address"
        }
      ],
      "stateMutability": "nonpayable",
      "type": "constructor"
    },
    {
      "anonymous": false,
      "inputs": [
        {
          "indexed": true,
          "internalType": "address",
          "name": "previousOwner",
          "type": "address"
        },
        {
          "indexed": true,
          "internalType": "address",
          "name": "newOwner",
          "type": "address"
        }
      ],
      "name": "OwnershipTransferred",
      "type": "event"
    },
    {
      "inputs": [
        {
          "internalType": "address",
          "name": "distilleryAddress",
          "type": "address"
        }
      ],
      "name": "approveDistillery",
      "outputs": [],
      "stateMutability": "nonpayable",
      "type": "function"
    },
    {
      "inputs": [
        {
          "internalType": "uint256",
          "name": "tokenId",
          "type": "uint256"
        }
      ],
      "name": "availableBottles",
      "outputs": [
        {
          "internalType": "uint256",
          "name": "",
          "type": "uint256"
        }
      ],
      "stateMutability": "view",
      "type": "function"
    },
    {
      "inputs": [],
      "name": "barrelHouse",
      "outputs": [
        {
          "internalType": "contract BarrelHouse",
          "name": "",
          "type": "address"
        }
      ],
      "stateMutability": "view",
      "type": "function"
    },
    {
      "inputs": [
        {
          "internalType": "uint256",
          "name": "tokenId",
          "type": "uint256"
        }
      ],
      "name": "barrelMaturationData",
      "outputs": [
        {
          "internalType": "uint256",
          "name": "",
          "type": "uint256"
        },
        {
          "internalType": "uint256",
          "name": "",
          "type": "uint256"
        }
      ],
      "stateMutability": "view",
      "type": "function"
    },
    {
      "inputs": [
        {
          "internalType": "uint256",
          "name": "tokenId",
          "type": "uint256"
        },
        {
          "internalType": "uint256",
          "name": "targetDate",
          "type": "uint256"
        }
      ],
      "name": "bottlePriceData",
      "outputs": [
        {
          "internalType": "uint32",
          "name": "",
          "type": "uint32"
        },
        {
          "internalType": "uint32",
          "name": "",
          "type": "uint32"
        },
        {
          "internalType": "uint32",
          "name": "",
          "type": "uint32"
        },
        {
          "internalType": "uint32",
          "name": "",
          "type": "uint32"
        }
      ],
      "stateMutability": "view",
      "type": "function"
    },
    {
      "inputs": [
        {
          "internalType": "uint32",
          "name": "startPriceUsd",
          "type": "uint32"
        },
        {
          "internalType": "uint32",
          "name": "endPriceUsd",
          "type": "uint32"
        },
        {
          "internalType": "uint32",
          "name": "feesPerBottleUsd",
          "type": "uint32"
        },
        {
          "internalType": "uint16",
          "name": "totalBottleSupply",
          "type": "uint16"
        },
        {
          "internalType": "uint16",
          "name": "buybackPercent",
          "type": "uint16"
        },
        {
          "internalType": "uint256",
          "name": "startTimestamp",
          "type": "uint256"
        },
        {
          "internalType": "uint256",
          "name": "endTimestamp",
          "type": "uint256"
        }
      ],
      "name": "createWhiskeyListing",
      "outputs": [
        {
          "internalType": "uint256",
          "name": "",
          "type": "uint256"
        }
      ],
      "stateMutability": "nonpayable",
      "type": "function"
    },
    {
      "inputs": [
        {
          "internalType": "uint256",
          "name": "tokenId",
          "type": "uint256"
        }
      ],
      "name": "currentBottlePrice",
      "outputs": [
        {
          "internalType": "uint32",
          "name": "",
          "type": "uint32"
        },
        {
          "internalType": "uint32",
          "name": "",
          "type": "uint32"
        },
        {
          "internalType": "uint32",
          "name": "",
          "type": "uint32"
        },
        {
          "internalType": "uint32",
          "name": "",
          "type": "uint32"
        }
      ],
      "stateMutability": "view",
      "type": "function"
    },
    {
      "inputs": [
        {
          "internalType": "address",
          "name": "distilleryAddress",
          "type": "address"
        }
      ],
      "name": "isApprovedToMint",
      "outputs": [
        {
          "internalType": "bool",
          "name": "",
          "type": "bool"
        }
      ],
      "stateMutability": "view",
      "type": "function"
    },
    {
      "inputs": [
        {
          "internalType": "address",
          "name": "",
          "type": "address"
        },
        {
          "internalType": "address",
          "name": "",
          "type": "address"
        },
        {
          "internalType": "uint256[]",
          "name": "",
          "type": "uint256[]"
        },
        {
          "internalType": "uint256[]",
          "name": "",
          "type": "uint256[]"
        },
        {
          "internalType": "bytes",
          "name": "",
          "type": "bytes"
        }
      ],
      "name": "onERC1155BatchReceived",
      "outputs": [
        {
          "internalType": "bytes4",
          "name": "",
          "type": "bytes4"
        }
      ],
      "stateMutability": "nonpayable",
      "type": "function"
    },
    {
      "inputs": [
        {
          "internalType": "address",
          "name": "",
          "type": "address"
        },
        {
          "internalType": "address",
          "name": "",
          "type": "address"
        },
        {
          "internalType": "uint256",
          "name": "",
          "type": "uint256"
        },
        {
          "internalType": "uint256",
          "name": "",
          "type": "uint256"
        },
        {
          "internalType": "bytes",
          "name": "",
          "type": "bytes"
        }
      ],
      "name": "onERC1155Received",
      "outputs": [
        {
          "internalType": "bytes4",
          "name": "",
          "type": "bytes4"
        }
      ],
      "stateMutability": "nonpayable",
      "type": "function"
    },
    {
      "inputs": [],
      "name": "owner",
      "outputs": [
        {
          "internalType": "address",
          "name": "",
          "type": "address"
        }
      ],
      "stateMutability": "view",
      "type": "function"
    },
    {
      "inputs": [
        {
          "internalType": "uint256",
          "name": "tokenId",
          "type": "uint256"
        },
        {
          "internalType": "uint16",
          "name": "quantity",
          "type": "uint16"
        }
      ],
      "name": "purchaseBottles",
      "outputs": [],
      "stateMutability": "payable",
      "type": "function"
    },
    {
      "inputs": [
        {
          "internalType": "uint256",
          "name": "tokenId",
          "type": "uint256"
        },
        {
          "internalType": "uint16",
          "name": "quantity",
          "type": "uint16"
        }
      ],
      "name": "redeem",
      "outputs": [],
      "stateMutability": "nonpayable",
      "type": "function"
    },
    {
      "inputs": [],
      "name": "renounceOwnership",
      "outputs": [],
      "stateMutability": "nonpayable",
      "type": "function"
    },
    {
      "inputs": [
        {
          "internalType": "bytes4",
          "name": "interfaceId",
          "type": "bytes4"
        }
      ],
      "name": "supportsInterface",
      "outputs": [
        {
          "internalType": "bool",
          "name": "",
          "type": "bool"
        }
      ],
      "stateMutability": "view",
      "type": "function"
    },
    {
      "inputs": [
        {
          "internalType": "uint256",
          "name": "tokenId",
          "type": "uint256"
        }
      ],
      "name": "totalBottles",
      "outputs": [
        {
          "internalType": "uint256",
          "name": "",
          "type": "uint256"
        }
      ],
      "stateMutability": "view",
      "type": "function"
    },
    {
      "inputs": [],
      "name": "totalFeesDepositedInUsd",
      "outputs": [
        {
          "internalType": "uint256",
          "name": "",
          "type": "uint256"
        }
      ],
      "stateMutability": "view",
      "type": "function"
    },
    {
      "inputs": [],
      "name": "totalFeesDepositedInWei",
      "outputs": [
        {
          "internalType": "uint256",
          "name": "",
          "type": "uint256"
        }
      ],
      "stateMutability": "view",
      "type": "function"
    },
    {
      "inputs": [
        {
          "internalType": "address",
          "name": "newOwner",
          "type": "address"
        }
      ],
      "name": "transferOwnership",
      "outputs": [],
      "stateMutability": "nonpayable",
      "type": "function"
    },
    {
      "stateMutability": "payable",
      "type": "receive"
    }
  ],
  "bytecode": "0x6080604052600060075560006008553480156200001b57600080fd5b506040516200372b3803806200372b833981810160405260408110156200004157600080fd5b810190808051906020019092919080519060200190929190505050620000746301ffc9a760e01b6200026160201b60201c565b6200009563bc197c8160e01b63f23a6e6160e01b186200026160201b60201c565b6000620000a76200036a60201b60201c565b905080600160006101000a81548173ffffffffffffffffffffffffffffffffffffffff021916908373ffffffffffffffffffffffffffffffffffffffff1602179055508073ffffffffffffffffffffffffffffffffffffffff16600073ffffffffffffffffffffffffffffffffffffffff167f8be0079c531659141344cd1fd0a4f28419497f9722a3daafe3b4186f6b6457e060405160405180910390a350600160028190555081600360006101000a81548173ffffffffffffffffffffffffffffffffffffffff021916908373ffffffffffffffffffffffffffffffffffffffff160217905550620001af620001a36200036a60201b60201c565b6200037260201b60201c565b73dcd33426ba191383f1c9b431a342498fdac73488600a60006101000a81548173ffffffffffffffffffffffffffffffffffffffff021916908373ffffffffffffffffffffffffffffffffffffffff160217905550735f4ec3df9cbd43714fe2740f5e3616155c5b8419600960006101000a81548173ffffffffffffffffffffffffffffffffffffffff021916908373ffffffffffffffffffffffffffffffffffffffff1602179055505050620004a0565b63ffffffff60e01b817bffffffffffffffffffffffffffffffffffffffffffffffffffffffff19161415620002fe576040517f08c379a000000000000000000000000000000000000000000000000000000000815260040180806020018281038252601c8152602001807f4552433136353a20696e76616c696420696e746572666163652069640000000081525060200191505060405180910390fd5b6001600080837bffffffffffffffffffffffffffffffffffffffffffffffffffffffff19167bffffffffffffffffffffffffffffffffffffffffffffffffffffffff1916815260200190815260200160002060006101000a81548160ff02191690831515021790555050565b600033905090565b620003826200036a60201b60201c565b73ffffffffffffffffffffffffffffffffffffffff16600160009054906101000a900473ffffffffffffffffffffffffffffffffffffffff1673ffffffffffffffffffffffffffffffffffffffff161462000445576040517f08c379a00000000000000000000000000000000000000000000000000000000081526004018080602001828103825260208152602001807f4f776e61626c653a2063616c6c6572206973206e6f7420746865206f776e657281525060200191505060405180910390fd5b6001600660008373ffffffffffffffffffffffffffffffffffffffff1673ffffffffffffffffffffffffffffffffffffffff16815260200190815260200160002060006101000a81548160ff02191690831515021790555050565b61327b80620004b06000396000f3fe6080604052600436106101185760003560e01c80636766cfd6116100a0578063bc197c8111610064578063bc197c81146105aa578063d220dee81461080d578063e8920db614610838578063f23a6e61146108be578063f2fde38b14610a0d5761011f565b80636766cfd61461042c5780636e27e45d146104d1578063715018a6146105275780638da5cb5b1461053e578063add35deb1461057f5761011f565b806336e1f3dc116100e757806336e1f3dc146102755780633a5c859c146102b15780635397a298146103005780635fccd5451461037c578063663d64a7146103c55761011f565b806301ffc9a714610124578063048c0201146101945780631cb2562c146101e55780631f361ea7146102345761011f565b3661011f57005b600080fd5b34801561013057600080fd5b5061017c6004803603602081101561014757600080fd5b8101908080357bffffffffffffffffffffffffffffffffffffffffffffffffffffffff19169060200190929190505050610a5e565b60405180821515815260200191505060405180910390f35b3480156101a057600080fd5b506101e3600480360360208110156101b757600080fd5b81019080803573ffffffffffffffffffffffffffffffffffffffff169060200190929190505050610ac5565b005b3480156101f157600080fd5b5061021e6004803603602081101561020857600080fd5b8101908080359060200190929190505050610bea565b6040518082815260200191505060405180910390f35b34801561024057600080fd5b50610249610c1c565b604051808273ffffffffffffffffffffffffffffffffffffffff16815260200191505060405180910390f35b6102af6004803603604081101561028b57600080fd5b8101908080359060200190929190803561ffff169060200190929190505050610c42565b005b3480156102bd57600080fd5b506102ea600480360360208110156102d457600080fd5b8101908080359060200190929190505050611299565b6040518082815260200191505060405180910390f35b34801561030c57600080fd5b506103396004803603602081101561032357600080fd5b8101908080359060200190929190505050611458565b604051808563ffffffff1681526020018463ffffffff1681526020018363ffffffff1681526020018263ffffffff16815260200194505050505060405180910390f35b34801561038857600080fd5b506103c36004803603604081101561039f57600080fd5b8101908080359060200190929190803561ffff169060200190929190505050611477565b005b3480156103d157600080fd5b50610414600480360360208110156103e857600080fd5b81019080803573ffffffffffffffffffffffffffffffffffffffff16906020019092919050505061169e565b60405180821515815260200191505060405180910390f35b34801561043857600080fd5b506104bb600480360360e081101561044f57600080fd5b81019080803563ffffffff169060200190929190803563ffffffff169060200190929190803563ffffffff169060200190929190803561ffff169060200190929190803561ffff16906020019092919080359060200190929190803590602001909291905050506116f4565b6040518082815260200191505060405180910390f35b3480156104dd57600080fd5b5061050a600480360360208110156104f457600080fd5b8101908080359060200190929190505050611b4d565b604051808381526020018281526020019250505060405180910390f35b34801561053357600080fd5b5061053c611b7b565b005b34801561054a57600080fd5b50610553611d06565b604051808273ffffffffffffffffffffffffffffffffffffffff16815260200191505060405180910390f35b34801561058b57600080fd5b50610594611d30565b6040518082815260200191505060405180910390f35b3480156105b657600080fd5b506107d8600480360360a08110156105cd57600080fd5b81019080803573ffffffffffffffffffffffffffffffffffffffff169060200190929190803573ffffffffffffffffffffffffffffffffffffffff1690602001909291908035906020019064010000000081111561062a57600080fd5b82018360208201111561063c57600080fd5b8035906020019184602083028401116401000000008311171561065e57600080fd5b919080806020026020016040519081016040528093929190818152602001838360200280828437600081840152601f19601f820116905080830192505050505050509192919290803590602001906401000000008111156106be57600080fd5b8201836020820111156106d057600080fd5b803590602001918460208302840111640100000000831117156106f257600080fd5b919080806020026020016040519081016040528093929190818152602001838360200280828437600081840152601f19601f8201169050808301925050505050505091929192908035906020019064010000000081111561075257600080fd5b82018360208201111561076457600080fd5b8035906020019184600183028401116401000000008311171561078657600080fd5b91908080601f016020809104026020016040519081016040528093929190818152602001838380828437600081840152601f19601f820116905080830192505050505050509192919290505050611d36565b60405180827bffffffffffffffffffffffffffffffffffffffffffffffffffffffff1916815260200191505060405180910390f35b34801561081957600080fd5b50610822611d4b565b6040518082815260200191505060405180910390f35b34801561084457600080fd5b5061087b6004803603604081101561085b57600080fd5b810190808035906020019092919080359060200190929190505050611d51565b604051808563ffffffff1681526020018463ffffffff1681526020018363ffffffff1681526020018263ffffffff16815260200194505050505060405180910390f35b3480156108ca57600080fd5b506109d8600480360360a08110156108e157600080fd5b81019080803573ffffffffffffffffffffffffffffffffffffffff169060200190929190803573ffffffffffffffffffffffffffffffffffffffff16906020019092919080359060200190929190803590602001909291908035906020019064010000000081111561095257600080fd5b82018360208201111561096457600080fd5b8035906020019184600183028401116401000000008311171561098657600080fd5b91908080601f016020809104026020016040519081016040528093929190818152602001838380828437600081840152601f19601f820116905080830192505050505050509192919290505050611e84565b60405180827bffffffffffffffffffffffffffffffffffffffffffffffffffffffff1916815260200191505060405180910390f35b348015610a1957600080fd5b50610a5c60048036036020811015610a3057600080fd5b81019080803573ffffffffffffffffffffffffffffffffffffffff169060200190929190505050611e99565b005b6000806000837bffffffffffffffffffffffffffffffffffffffffffffffffffffffff19167bffffffffffffffffffffffffffffffffffffffffffffffffffffffff1916815260200190815260200160002060009054906101000a900460ff169050919050565b610acd6120a9565b73ffffffffffffffffffffffffffffffffffffffff16600160009054906101000a900473ffffffffffffffffffffffffffffffffffffffff1673ffffffffffffffffffffffffffffffffffffffff1614610b8f576040517f08c379a00000000000000000000000000000000000000000000000000000000081526004018080602001828103825260208152602001807f4f776e61626c653a2063616c6c6572206973206e6f7420746865206f776e657281525060200191505060405180910390fd5b6001600660008373ffffffffffffffffffffffffffffffffffffffff1673ffffffffffffffffffffffffffffffffffffffff16815260200190815260200160002060006101000a81548160ff02191690831515021790555050565b600060046000838152602001908152602001600020600001600c9054906101000a900461ffff1661ffff169050919050565b600360009054906101000a900473ffffffffffffffffffffffffffffffffffffffff1681565b600280541415610cba576040517f08c379a000000000000000000000000000000000000000000000000000000000815260040180806020018281038252601f8152602001807f5265656e7472616e637947756172643a207265656e7472616e742063616c6c0081525060200191505060405180910390fd5b600280819055506005600083815260200190815260200160002060009054906101000a900473ffffffffffffffffffffffffffffffffffffffff1673ffffffffffffffffffffffffffffffffffffffff16610d136120a9565b73ffffffffffffffffffffffffffffffffffffffff161415610d9d576040517f08c379a00000000000000000000000000000000000000000000000000000000081526004018080602001828103825260208152602001807f54726561737572792063616e6e6f7420707572636861736520626f74746c657381525060200191505060405180910390fd5b6000610da883611299565b90508161ffff16811015610e24576040517f08c379a000000000000000000000000000000000000000000000000000000000815260040180806020018281038252601c8152602001807f4e6f7420656e6f75676820626f74746c657320617661696c61626c650000000081525060200191505060405180910390fd5b600080600080610e348742611d51565b93509350935093506000610e5d8761ffff1683870163ffffffff166120b190919063ffffffff16565b90506000610e69612137565b9050610eaa6040518060400160405280601681526020017f45746820746f2075736420726174652069733a2025730000000000000000000081525082612357565b610ee96040518060400160405280601381526020017f546f74616c205072696365205553443a2025730000000000000000000000000081525083612357565b6000610efe82846120b190919063ffffffff16565b9050610f3f6040518060400160405280600e81526020017f57656920636f737420697320257300000000000000000000000000000000000081525082612357565b610f7e6040518060400160405280601481526020017f5061796d656e7420737570706c6965643a20257300000000000000000000000081525034612357565b80341015610fd7576040517f08c379a000000000000000000000000000000000000000000000000000000000815260040180806020018281038252602c815260200180613166602c913960400191505060405180910390fd5b6000610ff68a61ffff168663ffffffff166120b190919063ffffffff16565b9050600061100d84836120b190919063ffffffff16565b9050611019818361245e565b600360009054906101000a900473ffffffffffffffffffffffffffffffffffffffff1673ffffffffffffffffffffffffffffffffffffffff1663f242432a600560008f815260200190815260200160002060009054906101000a900473ffffffffffffffffffffffffffffffffffffffff166110936120a9565b8f8f6040518563ffffffff1660e01b8152600401808573ffffffffffffffffffffffffffffffffffffffff1681526020018473ffffffffffffffffffffffffffffffffffffffff1681526020018381526020018261ffff16815260200180602001828103825260028152602001807f307800000000000000000000000000000000000000000000000000000000000081525060200195505050505050600060405180830381600087803b15801561114957600080fd5b505af115801561115d573d6000803e3d6000fd5b505050506000600560008e815260200190815260200160002060009054906101000a900473ffffffffffffffffffffffffffffffffffffffff1673ffffffffffffffffffffffffffffffffffffffff166111c0833461252f90919063ffffffff16565b60405180600001905060006040518083038185875af1925050503d8060008114611206576040519150601f19603f3d011682016040523d82523d6000602084013e61120b565b606091505b5050905080611282576040517f08c379a000000000000000000000000000000000000000000000000000000000815260040180806020018281038252601a8152602001807f5472616e7366657220646964206e6f742073756363636565642e00000000000081525060200191505060405180910390fd5b505050505050505050505060016002819055505050565b60008073ffffffffffffffffffffffffffffffffffffffff166005600084815260200190815260200160002060009054906101000a900473ffffffffffffffffffffffffffffffffffffffff1673ffffffffffffffffffffffffffffffffffffffff161415611353576040517f08c379a00000000000000000000000000000000000000000000000000000000081526004018080602001828103825260218152602001806132036021913960400191505060405180910390fd5b600360009054906101000a900473ffffffffffffffffffffffffffffffffffffffff1673ffffffffffffffffffffffffffffffffffffffff1662fdd58e6005600085815260200190815260200160002060009054906101000a900473ffffffffffffffffffffffffffffffffffffffff16846040518363ffffffff1660e01b8152600401808373ffffffffffffffffffffffffffffffffffffffff1681526020018281526020019250505060206040518083038186803b15801561141657600080fd5b505afa15801561142a573d6000803e3d6000fd5b505050506040513d602081101561144057600080fd5b81019080805190602001909291905050509050919050565b6000806000806114688542611d51565b93509350935093509193509193565b60006005600084815260200190815260200160002060009054906101000a900473ffffffffffffffffffffffffffffffffffffffff1690508073ffffffffffffffffffffffffffffffffffffffff166114ce6120a9565b73ffffffffffffffffffffffffffffffffffffffff161415611558576040517f08c379a000000000000000000000000000000000000000000000000000000000815260040180806020018281038252601f8152602001807f54726561737572792063616e6e6f742072656465656d20626f74746c65732e0081525060200191505060405180910390fd5b600360009054906101000a900473ffffffffffffffffffffffffffffffffffffffff1673ffffffffffffffffffffffffffffffffffffffff1663f5298aca61159e6120a9565b85856040518463ffffffff1660e01b8152600401808473ffffffffffffffffffffffffffffffffffffffff1681526020018381526020018261ffff1681526020019350505050600060405180830381600087803b1580156115fe57600080fd5b505af1158015611612573d6000803e3d6000fd5b50505050600060046000858152602001908152602001600020905060008160000160089054906101000a900463ffffffff168461ffff160263ffffffff16905061169761165d6120a9565b6005600088815260200190815260200160002060009054906101000a900473ffffffffffffffffffffffffffffffffffffffff1683612579565b5050505050565b6000600660008373ffffffffffffffffffffffffffffffffffffffff1673ffffffffffffffffffffffffffffffffffffffff16815260200190815260200160002060009054906101000a900460ff169050919050565b60006117066117016120a9565b61169e565b61175b576040517f08c379a000000000000000000000000000000000000000000000000000000000815260040180806020018281038252602981526020018061313d6029913960400191505060405180910390fd5b600360009054906101000a900473ffffffffffffffffffffffffffffffffffffffff1673ffffffffffffffffffffffffffffffffffffffff1663e985e9c56117a16120a9565b306040518363ffffffff1660e01b8152600401808373ffffffffffffffffffffffffffffffffffffffff1681526020018273ffffffffffffffffffffffffffffffffffffffff1681526020019250505060206040518083038186803b15801561180957600080fd5b505afa15801561181d573d6000803e3d6000fd5b505050506040513d602081101561183357600080fd5b8101908080519060200190929190505050611899576040517f08c379a000000000000000000000000000000000000000000000000000000000815260040180806020018281038252602a815260200180613192602a913960400191505060405180910390fd5b8663ffffffff168863ffffffff16111561191b576040517f08c379a000000000000000000000000000000000000000000000000000000000815260040180806020018281038252601e8152602001807f50726963652063616e6e6f7420646576616c7565206f7665722074696d65000081525060200191505060405180910390fd5b6000600360009054906101000a900473ffffffffffffffffffffffffffffffffffffffff1673ffffffffffffffffffffffffffffffffffffffff1663ad0be4bd6119636120a9565b886040518363ffffffff1660e01b8152600401808373ffffffffffffffffffffffffffffffffffffffff1681526020018261ffff16815260200192505050602060405180830381600087803b1580156119bb57600080fd5b505af11580156119cf573d6000803e3d6000fd5b505050506040513d60208110156119e557600080fd5b8101908080519060200190929190505050905060006127108661ffff1611611a0d5785611a11565b6127105b905060006004600084815260200190815260200160002090508a8160000160006101000a81548163ffffffff021916908363ffffffff160217905550898160000160046101000a81548163ffffffff021916908363ffffffff160217905550888160000160086101000a81548163ffffffff021916908363ffffffff1602179055508781600001600c6101000a81548161ffff021916908361ffff1602179055508181600001600e6101000a81548161ffff021916908361ffff160217905550858160010181905550848160020181905550611aeb6120a9565b6005600085815260200190815260200160002060006101000a81548173ffffffffffffffffffffffffffffffffffffffff021916908373ffffffffffffffffffffffffffffffffffffffff160217905550829350505050979650505050505050565b6000806000600460008581526020019081526020016000209050806001015481600201549250925050915091565b611b836120a9565b73ffffffffffffffffffffffffffffffffffffffff16600160009054906101000a900473ffffffffffffffffffffffffffffffffffffffff1673ffffffffffffffffffffffffffffffffffffffff1614611c45576040517f08c379a00000000000000000000000000000000000000000000000000000000081526004018080602001828103825260208152602001807f4f776e61626c653a2063616c6c6572206973206e6f7420746865206f776e657281525060200191505060405180910390fd5b600073ffffffffffffffffffffffffffffffffffffffff16600160009054906101000a900473ffffffffffffffffffffffffffffffffffffffff1673ffffffffffffffffffffffffffffffffffffffff167f8be0079c531659141344cd1fd0a4f28419497f9722a3daafe3b4186f6b6457e060405160405180910390a36000600160006101000a81548173ffffffffffffffffffffffffffffffffffffffff021916908373ffffffffffffffffffffffffffffffffffffffff160217905550565b6000600160009054906101000a900473ffffffffffffffffffffffffffffffffffffffff16905090565b60075481565b600063bc197c8160e01b905095945050505050565b60085481565b60008060008060006004600088815260200190815260200160002090506000816001015490506000826002015490506000611d9583611d90848c612d6d565b612d86565b9050600083830390506000848303905060008660000160009054906101000a900463ffffffff16905060008760000160049054906101000a900463ffffffff169050600082820390506000611e0b86611dfd878563ffffffff166120b190919063ffffffff16565b612da090919063ffffffff16565b90506000818b60000160009054906101000a900463ffffffff16019050808b60000160009054906101000a900463ffffffff168c60000160049054906101000a900463ffffffff168d60000160089054906101000a900463ffffffff169e509e509e509e50505050505050505050505092959194509250565b600063f23a6e6160e01b905095945050505050565b611ea16120a9565b73ffffffffffffffffffffffffffffffffffffffff16600160009054906101000a900473ffffffffffffffffffffffffffffffffffffffff1673ffffffffffffffffffffffffffffffffffffffff1614611f63576040517f08c379a00000000000000000000000000000000000000000000000000000000081526004018080602001828103825260208152602001807f4f776e61626c653a2063616c6c6572206973206e6f7420746865206f776e657281525060200191505060405180910390fd5b600073ffffffffffffffffffffffffffffffffffffffff168173ffffffffffffffffffffffffffffffffffffffff161415611fe9576040517f08c379a00000000000000000000000000000000000000000000000000000000081526004018080602001828103825260268152602001806131bc6026913960400191505060405180910390fd5b8073ffffffffffffffffffffffffffffffffffffffff16600160009054906101000a900473ffffffffffffffffffffffffffffffffffffffff1673ffffffffffffffffffffffffffffffffffffffff167f8be0079c531659141344cd1fd0a4f28419497f9722a3daafe3b4186f6b6457e060405160405180910390a380600160006101000a81548173ffffffffffffffffffffffffffffffffffffffff021916908373ffffffffffffffffffffffffffffffffffffffff16021790555050565b600033905090565b6000808314156120c45760009050612131565b60008284029050828482816120d557fe5b041461212c576040517f08c379a00000000000000000000000000000000000000000000000000000000081526004018080602001828103825260218152602001806131e26021913960400191505060405180910390fd5b809150505b92915050565b600080600960009054906101000a900473ffffffffffffffffffffffffffffffffffffffff1673ffffffffffffffffffffffffffffffffffffffff1663feaf968c6040518163ffffffff1660e01b815260040160a06040518083038186803b1580156121a257600080fd5b505afa1580156121b6573d6000803e3d6000fd5b505050506040513d60a08110156121cc57600080fd5b8101908080519060200190929190805190602001909291908051906020019092919080519060200190929190805190602001909291905050505050509150506000600960009054906101000a900473ffffffffffffffffffffffffffffffffffffffff1673ffffffffffffffffffffffffffffffffffffffff1663313ce5676040518163ffffffff1660e01b815260040160206040518083038186803b15801561227557600080fd5b505afa158015612289573d6000803e3d6000fd5b505050506040513d602081101561229f57600080fd5b810190808051906020019092919050505090506000821361230b576040517f08c379a00000000000000000000000000000000000000000000000000000000081526004018080602001828103825260228152602001806132246022913960400191505060405180910390fd5b61231482612dea565b600061234c8361233e670de0b6b3a76400006002860360ff16600a0a6120b190919063ffffffff16565b612da090919063ffffffff16565b905080935050505090565b61245a82826040516024018080602001838152602001828103825284818151815260200191508051906020019080838360005b838110156123a557808201518184015260208101905061238a565b50505050905090810190601f1680156123d25780820380516001836020036101000a031916815260200191505b5093505050506040516020818303038152906040527f9710a9d0000000000000000000000000000000000000000000000000000000007bffffffffffffffffffffffffffffffffffffffffffffffffffffffff19166020820180517bffffffffffffffffffffffffffffffffffffffffffffffffffffffff8381831617835250505050612e83565b5050565b8160076000828254019250508190555080600860008282540192505081905550600a60009054906101000a900473ffffffffffffffffffffffffffffffffffffffff1673ffffffffffffffffffffffffffffffffffffffff166358c22be7833060006040518463ffffffff1660e01b8152600401808373ffffffffffffffffffffffffffffffffffffffff168152602001828152602001925050506000604051808303818588803b15801561251257600080fd5b505af1158015612526573d6000803e3d6000fd5b50505050505050565b600061257183836040518060400160405280601e81526020017f536166654d6174683a207375627472616374696f6e206f766572666c6f770000815250612eac565b905092915050565b6002805414156125f1576040517f08c379a000000000000000000000000000000000000000000000000000000000815260040180806020018281038252601f8152602001807f5265656e7472616e637947756172643a207265656e7472616e742063616c6c0081525060200191505060405180910390fd5b600280819055506000600a60009054906101000a900473ffffffffffffffffffffffffffffffffffffffff1673ffffffffffffffffffffffffffffffffffffffff16633a21afac6040518163ffffffff1660e01b8152600401602060405180830381600087803b15801561266457600080fd5b505af1158015612678573d6000803e3d6000fd5b505050506040513d602081101561268e57600080fd5b81019080805190602001909291905050509050600060608273ffffffffffffffffffffffffffffffffffffffff1630604051602401808273ffffffffffffffffffffffffffffffffffffffff1681526020019150506040516020818303038152906040527f70a08231000000000000000000000000000000000000000000000000000000007bffffffffffffffffffffffffffffffffffffffffffffffffffffffff19166020820180517bffffffffffffffffffffffffffffffffffffffffffffffffffffffff83818316178352505050506040518082805190602001908083835b602083106127935780518252602082019150602081019050602083039250612770565b6001836020036101000a0380198251168184511680821785525050505050509050019150506000604051808303816000865af19150503d80600081146127f5576040519150601f19603f3d011682016040523d82523d6000602084013e6127fa565b606091505b509150915081612872576040517f08c379a000000000000000000000000000000000000000000000000000000000815260040180806020018281038252601c8152602001807f4572726f722063616c6c696e6720615765746820636f6e74726163740000000081525060200191505060405180910390fd5b600061287f826000612f6c565b90506128c06040518060400160405280601381526020017f416176652062616c616e63652069733a2025730000000000000000000000000081525082612357565b60006128eb6008546128dd600754896120b190919063ffffffff16565b612da090919063ffffffff16565b90506000612916600854612908858a6120b190919063ffffffff16565b612da090919063ffffffff16565b90506000828203905061295e6040518060400160405280601281526020017f4465706f736974656420666565733a202573000000000000000000000000000081525084612357565b61299d6040518060400160405280601381526020017f496e746572657374206561726e65643a2025730000000000000000000000000081525083612357565b6129dc6040518060400160405280601581526020017f456c696761626c6520696e7465726573743a202573000000000000000000000081525082612357565b8673ffffffffffffffffffffffffffffffffffffffff16600a60009054906101000a900473ffffffffffffffffffffffffffffffffffffffff1683604051602401808373ffffffffffffffffffffffffffffffffffffffff168152602001828152602001925050506040516020818303038152906040527f095ea7b3000000000000000000000000000000000000000000000000000000007bffffffffffffffffffffffffffffffffffffffffffffffffffffffff19166020820180517bffffffffffffffffffffffffffffffffffffffffffffffffffffffff83818316178352505050506040518082805190602001908083835b60208310612af45780518252602082019150602081019050602083039250612ad1565b6001836020036101000a0380198251168184511680821785525050505050509050019150506000604051808303816000865af19150503d8060008114612b56576040519150601f19603f3d011682016040523d82523d6000602084013e612b5b565b606091505b505050600a60009054906101000a900473ffffffffffffffffffffffffffffffffffffffff1673ffffffffffffffffffffffffffffffffffffffff166336118b5283306040518363ffffffff1660e01b8152600401808381526020018273ffffffffffffffffffffffffffffffffffffffff16815260200192505050600060405180830381600087803b158015612bf157600080fd5b505af1158015612c05573d6000803e3d6000fd5b5050505060008973ffffffffffffffffffffffffffffffffffffffff168460405180600001905060006040518083038185875af1925050503d8060008114612c69576040519150601f19603f3d011682016040523d82523d6000602084013e612c6e565b606091505b5050905060008b73ffffffffffffffffffffffffffffffffffffffff168360405180600001905060006040518083038185875af1925050503d8060008114612cd2576040519150601f19603f3d011682016040523d82523d6000602084013e612cd7565b606091505b50509050818015612ce55750805b612d57576040517f08c379a00000000000000000000000000000000000000000000000000000000081526004018080602001828103825260168152602001807f4572726f7220706179696e67206f757420666565732e0000000000000000000081525060200191505060405180910390fd5b5050505050505050506001600281905550505050565b6000818310612d7c5781612d7e565b825b905092915050565b600081831015612d965781612d98565b825b905092915050565b6000612de283836040518060400160405280601a81526020017f536166654d6174683a206469766973696f6e206279207a65726f000000000000815250613076565b905092915050565b612e8081604051602401808281526020019150506040516020818303038152906040527ff5b1bba9000000000000000000000000000000000000000000000000000000007bffffffffffffffffffffffffffffffffffffffffffffffffffffffff19166020820180517bffffffffffffffffffffffffffffffffffffffffffffffffffffffff8381831617835250505050612e83565b50565b60008151905060006a636f6e736f6c652e6c6f679050602083016000808483855afa5050505050565b6000838311158290612f59576040517f08c379a00000000000000000000000000000000000000000000000000000000081526004018080602001828103825283818151815260200191508051906020019080838360005b83811015612f1e578082015181840152602081019050612f03565b50505050905090810190601f168015612f4b5780820380516001836020036101000a031916815260200191505b509250505060405180910390fd5b5060008385039050809150509392505050565b600081602083011015612fe7576040517f08c379a00000000000000000000000000000000000000000000000000000000081526004018080602001828103825260128152602001807f746f55696e743235365f6f766572666c6f77000000000000000000000000000081525060200191505060405180910390fd5b6020820183511015613061576040517f08c379a00000000000000000000000000000000000000000000000000000000081526004018080602001828103825260158152602001807f746f55696e743235365f6f75744f66426f756e6473000000000000000000000081525060200191505060405180910390fd5b60008260208501015190508091505092915050565b60008083118290613122576040517f08c379a00000000000000000000000000000000000000000000000000000000081526004018080602001828103825283818151815260200191508051906020019080838360005b838110156130e75780820151818401526020810190506130cc565b50505050905090810190601f1680156131145780820380516001836020036101000a031916815260200191505b509250505060405180910390fd5b50600083858161312e57fe5b04905080915050939250505056fe596f7520617265206e6f7420617574686f72697a656420746f20637265617465206c697374696e67215061796d656e7420646f6573206e6f7420636f76657220746865207072696365206f6620626f74746c65732e596f75206d75737420617070726f766520706c6174666f726d20746f2073656c6c20626f74746c65732e4f776e61626c653a206e6577206f776e657220697320746865207a65726f2061646472657373536166654d6174683a206d756c7469706c69636174696f6e206f766572666c6f77546f6b656e206d757374206861766520612076616c69642074726561737572792143616e6e6f7420627579207768656e20726174652069732030206f72206c6573732ea2646970667358221220e7ec56b34165932ff7652164e1cce486d6a9533e076fcb9f15b4b73dac24599964736f6c63430007030033",
  "linkReferences": {},
  "deployedLinkReferences": {}
}